{
  "transactions": [
    {
      "hash": "0x7eeafd2a35e01c4e566ccf5c2d613c933fc3385a5a5692eddd4feb87b3c5cd0a",
      "transactionType": "CREATE",
      "contractName": "WelpToken",
      "contractAddress": "0xdf76bdf11812e93f31bdf6363fe3cd1fe4078a52",
      "function": null,
      "arguments": [
        "0x4fF9193756e090795742756E043EdeBf50EEAA47"
      ],
      "transaction": {
        "from": "0x4ff9193756e090795742756e043edebf50eeaa47",
        "gas": "0x1b9ff4",
        "value": "0x0",
        "input": "0x608060405234801562000010575f80fd5b5060405162001cf738038062001cf78339818101604052810190620000369190620002b5565b806040518060400160405280600481526020017f57656c70000000000000000000000000000000000000000000000000000000008152506040518060400160405280600481526020017f57454c50000000000000000000000000000000000000000000000000000000008152508160039081620000b4919062000549565b508060049081620000c6919062000549565b5050505f73ffffffffffffffffffffffffffffffffffffffff168173ffffffffffffffffffffffffffffffffffffffff16036200013c575f6040517f1e4fbdf70000000000000000000000000000000000000000000000000000000081526004016200013391906200063e565b60405180910390fd5b6200014d816200015560201b60201c565b505062000659565b60065f6101000a81549073ffffffffffffffffffffffffffffffffffffffff02191690556200018a816200018d60201b60201c565b50565b5f60055f9054906101000a900473ffffffffffffffffffffffffffffffffffffffff1690508160055f6101000a81548173ffffffffffffffffffffffffffffffffffffffff021916908373ffffffffffffffffffffffffffffffffffffffff1602179055508173ffffffffffffffffffffffffffffffffffffffff168173ffffffffffffffffffffffffffffffffffffffff167f8be0079c531659141344cd1fd0a4f28419497f9722a3daafe3b4186f6b6457e060405160405180910390a35050565b5f80fd5b5f73ffffffffffffffffffffffffffffffffffffffff82169050919050565b5f6200027f8262000254565b9050919050565b620002918162000273565b81146200029c575f80fd5b50565b5f81519050620002af8162000286565b92915050565b5f60208284031215620002cd57620002cc62000250565b5b5f620002dc848285016200029f565b91505092915050565b5f81519050919050565b7f4e487b71000000000000000000000000000000000000000000000000000000005f52604160045260245ffd5b7f4e487b71000000000000000000000000000000000000000000000000000000005f52602260045260245ffd5b5f60028204905060018216806200036157607f821691505b6020821081036200037757620003766200031c565b5b50919050565b5f819050815f5260205f209050919050565b5f6020601f8301049050919050565b5f82821b905092915050565b5f60088302620003db7fffffffffffffffffffffffffffffffffffffffffffffffffffffffffffffffff826200039e565b620003e786836200039e565b95508019841693508086168417925050509392505050565b5f819050919050565b5f819050919050565b5f620004316200042b6200042584620003ff565b62000408565b620003ff565b9050919050565b5f819050919050565b6200044c8362000411565b620004646200045b8262000438565b848454620003aa565b825550505050565b5f90565b6200047a6200046c565b6200048781848462000441565b505050565b5b81811015620004ae57620004a25f8262000470565b6001810190506200048d565b5050565b601f821115620004fd57620004c7816200037d565b620004d2846200038f565b81016020851015620004e2578190505b620004fa620004f1856200038f565b8301826200048c565b50505b505050565b5f82821c905092915050565b5f6200051f5f198460080262000502565b1980831691505092915050565b5f6200053983836200050e565b9150826002028217905092915050565b6200055482620002e5565b67ffffffffffffffff81111562000570576200056f620002ef565b5b6200057c825462000349565b62000589828285620004b2565b5f60209050601f831160018114620005bf575f8415620005aa578287015190505b620005b685826200052c565b86555062000625565b601f198416620005cf866200037d565b5f5b82811015620005f857848901518255600182019150602085019450602081019050620005d1565b8683101562000618578489015162000614601f8916826200050e565b8355505b6001600288020188555050505b505050505050565b620006388162000273565b82525050565b5f602082019050620006535f8301846200062d565b92915050565b61169080620006675f395ff3fe608060405234801561000f575f80fd5b506004361061012a575f3560e01c8063715018a6116100ab578063a9059cbb1161006f578063a9059cbb146102d4578063dd62ed3e14610304578063e30c397814610334578063f2fde38b14610352578063f5bb3e021461036e5761012a565b8063715018a61461027a57806379ba5097146102845780638456cb591461028e5780638da5cb5b1461029857806395d89b41146102b65761012a565b80633f4ba83a116100f25780633f4ba83a146101e857806340c10f19146101f25780635579ed011461020e5780635c975abb1461022c57806370a082311461024a5761012a565b806306fdde031461012e578063095ea7b31461014c57806318160ddd1461017c57806323b872dd1461019a578063313ce567146101ca575b5f80fd5b61013661038a565b6040516101439190611309565b60405180910390f35b610166600480360381019061016191906113ba565b61041a565b6040516101739190611412565b60405180910390f35b61018461043c565b604051610191919061143a565b60405180910390f35b6101b460048036038101906101af9190611453565b610445565b6040516101c19190611412565b60405180910390f35b6101d2610473565b6040516101df91906114be565b60405180910390f35b6101f061047b565b005b61020c600480360381019061020791906113ba565b61048d565b005b610216610529565b60405161022391906114e6565b60405180910390f35b61023461054e565b6040516102419190611412565b60405180910390f35b610264600480360381019061025f91906114ff565b610564565b604051610271919061143a565b60405180910390f35b6102826105a9565b005b61028c6105bc565b005b61029661064a565b005b6102a061065c565b6040516102ad91906114e6565b60405180910390f35b6102be610684565b6040516102cb9190611309565b60405180910390f35b6102ee60048036038101906102e991906113ba565b610714565b6040516102fb9190611412565b60405180910390f35b61031e6004803603810190610319919061152a565b610736565b60405161032b919061143a565b60405180910390f35b61033c6107b8565b60405161034991906114e6565b60405180910390f35b61036c600480360381019061036791906114ff565b6107e0565b005b610388600480360381019061038391906114ff565b61088c565b005b60606003805461039990611595565b80601f01602080910402602001604051908101604052809291908181526020018280546103c590611595565b80156104105780601f106103e757610100808354040283529160200191610410565b820191905f5260205f20905b8154815290600101906020018083116103f357829003601f168201915b5050505050905090565b5f806104246109bc565b90506104318185856109c3565b600191505092915050565b5f600254905090565b5f8061044f6109bc565b905061045c8582856109d5565b610467858585610a68565b60019150509392505050565b5f6012905090565b610483610b58565b61048b610bdf565b565b60075f9054906101000a900473ffffffffffffffffffffffffffffffffffffffff1673ffffffffffffffffffffffffffffffffffffffff163373ffffffffffffffffffffffffffffffffffffffff1614610513576040517f4b708b2b00000000000000000000000000000000000000000000000000000000815260040160405180910390fd5b61051b610c41565b6105258282610c82565b5050565b60075f9054906101000a900473ffffffffffffffffffffffffffffffffffffffff1681565b5f600660149054906101000a900460ff16905090565b5f805f8373ffffffffffffffffffffffffffffffffffffffff1673ffffffffffffffffffffffffffffffffffffffff1681526020019081526020015f20549050919050565b6105b1610b58565b6105ba5f610d01565b565b5f6105c56109bc565b90508073ffffffffffffffffffffffffffffffffffffffff166105e66107b8565b73ffffffffffffffffffffffffffffffffffffffff161461063e57806040517f118cdaa700000000000000000000000000000000000000000000000000000000815260040161063591906114e6565b60405180910390fd5b61064781610d01565b50565b610652610b58565b61065a610d31565b565b5f60055f9054906101000a900473ffffffffffffffffffffffffffffffffffffffff16905090565b60606004805461069390611595565b80601f01602080910402602001604051908101604052809291908181526020018280546106bf90611595565b801561070a5780601f106106e15761010080835404028352916020019161070a565b820191905f5260205f20905b8154815290600101906020018083116106ed57829003601f168201915b5050505050905090565b5f8061071e6109bc565b905061072b818585610a68565b600191505092915050565b5f60015f8473ffffffffffffffffffffffffffffffffffffffff1673ffffffffffffffffffffffffffffffffffffffff1681526020019081526020015f205f8373ffffffffffffffffffffffffffffffffffffffff1673ffffffffffffffffffffffffffffffffffffffff1681526020019081526020015f2054905092915050565b5f60065f9054906101000a900473ffffffffffffffffffffffffffffffffffffffff16905090565b6107e8610b58565b8060065f6101000a81548173ffffffffffffffffffffffffffffffffffffffff021916908373ffffffffffffffffffffffffffffffffffffffff1602179055508073ffffffffffffffffffffffffffffffffffffffff1661084761065c565b73ffffffffffffffffffffffffffffffffffffffff167f38d16b8cac22d99fc7c124b9cd0de2d3fa1faef420bfe791d8c362d765e2270060405160405180910390a350565b610894610b58565b5f73ffffffffffffffffffffffffffffffffffffffff168173ffffffffffffffffffffffffffffffffffffffff16036108f9576040517fd92e233d00000000000000000000000000000000000000000000000000000000815260040160405180910390fd5b5f60075f9054906101000a900473ffffffffffffffffffffffffffffffffffffffff1690508160075f6101000a81548173ffffffffffffffffffffffffffffffffffffffff021916908373ffffffffffffffffffffffffffffffffffffffff1602179055508173ffffffffffffffffffffffffffffffffffffffff168173ffffffffffffffffffffffffffffffffffffffff167ff2ce85500052e4bce5775e8ae4c693f7306abf01169eb3a48860dce05cb91c3160405160405180910390a35050565b5f33905090565b6109d08383836001610d94565b505050565b5f6109e08484610736565b90507fffffffffffffffffffffffffffffffffffffffffffffffffffffffffffffffff811015610a625781811015610a53578281836040517ffb8f41b2000000000000000000000000000000000000000000000000000000008152600401610a4a939291906115c5565b60405180910390fd5b610a6184848484035f610d94565b5b50505050565b5f73ffffffffffffffffffffffffffffffffffffffff168373ffffffffffffffffffffffffffffffffffffffff1603610ad8575f6040517f96c6fd1e000000000000000000000000000000000000000000000000000000008152600401610acf91906114e6565b60405180910390fd5b5f73ffffffffffffffffffffffffffffffffffffffff168273ffffffffffffffffffffffffffffffffffffffff1603610b48575f6040517fec442f05000000000000000000000000000000000000000000000000000000008152600401610b3f91906114e6565b60405180910390fd5b610b53838383610f63565b505050565b610b606109bc565b73ffffffffffffffffffffffffffffffffffffffff16610b7e61065c565b73ffffffffffffffffffffffffffffffffffffffff1614610bdd57610ba16109bc565b6040517f118cdaa7000000000000000000000000000000000000000000000000000000008152600401610bd491906114e6565b60405180910390fd5b565b610be761117c565b5f600660146101000a81548160ff0219169083151502179055507f5db9ee0a495bf2e6ff9c91a7834c1ba4fdd244a5e8aa4e537bd38aeae4b073aa610c2a6109bc565b604051610c3791906114e6565b60405180910390a1565b610c4961054e565b15610c80576040517fd93c066500000000000000000000000000000000000000000000000000000000815260040160405180910390fd5b565b5f73ffffffffffffffffffffffffffffffffffffffff168273ffffffffffffffffffffffffffffffffffffffff1603610cf2575f6040517fec442f05000000000000000000000000000000000000000000000000000000008152600401610ce991906114e6565b60405180910390fd5b610cfd5f8383610f63565b5050565b60065f6101000a81549073ffffffffffffffffffffffffffffffffffffffff0219169055610d2e816111bc565b50565b610d39610c41565b6001600660146101000a81548160ff0219169083151502179055507f62e78cea01bee320cd4e420270b5ea74000d11b0c9f74754ebdbfc544b05a258610d7d6109bc565b604051610d8a91906114e6565b60405180910390a1565b5f73ffffffffffffffffffffffffffffffffffffffff168473ffffffffffffffffffffffffffffffffffffffff1603610e04575f6040517fe602df05000000000000000000000000000000000000000000000000000000008152600401610dfb91906114e6565b60405180910390fd5b5f73ffffffffffffffffffffffffffffffffffffffff168373ffffffffffffffffffffffffffffffffffffffff1603610e74575f6040517f94280d62000000000000000000000000000000000000000000000000000000008152600401610e6b91906114e6565b60405180910390fd5b8160015f8673ffffffffffffffffffffffffffffffffffffffff1673ffffffffffffffffffffffffffffffffffffffff1681526020019081526020015f205f8573ffffffffffffffffffffffffffffffffffffffff1673ffffffffffffffffffffffffffffffffffffffff1681526020019081526020015f20819055508015610f5d578273ffffffffffffffffffffffffffffffffffffffff168473ffffffffffffffffffffffffffffffffffffffff167f8c5be1e5ebec7d5bd14f71427d1e84f3dd0314c0f7b2291e5b200ac8c7c3b92584604051610f54919061143a565b60405180910390a35b50505050565b5f73ffffffffffffffffffffffffffffffffffffffff168373ffffffffffffffffffffffffffffffffffffffff1603610fb3578060025f828254610fa79190611627565b92505081905550611081565b5f805f8573ffffffffffffffffffffffffffffffffffffffff1673ffffffffffffffffffffffffffffffffffffffff1681526020019081526020015f205490508181101561103c578381836040517fe450d38c000000000000000000000000000000000000000000000000000000008152600401611033939291906115c5565b60405180910390fd5b8181035f808673ffffffffffffffffffffffffffffffffffffffff1673ffffffffffffffffffffffffffffffffffffffff1681526020019081526020015f2081905550505b5f73ffffffffffffffffffffffffffffffffffffffff168273ffffffffffffffffffffffffffffffffffffffff16036110c8578060025f8282540392505081905550611112565b805f808473ffffffffffffffffffffffffffffffffffffffff1673ffffffffffffffffffffffffffffffffffffffff1681526020019081526020015f205f82825401925050819055505b8173ffffffffffffffffffffffffffffffffffffffff168373ffffffffffffffffffffffffffffffffffffffff167fddf252ad1be2c89b69c2b068fc378daa952ba7f163c4a11628f55a4df523b3ef8360405161116f919061143a565b60405180910390a3505050565b61118461054e565b6111ba576040517f8dfc202b00000000000000000000000000000000000000000000000000000000815260040160405180910390fd5b565b5f60055f9054906101000a900473ffffffffffffffffffffffffffffffffffffffff1690508160055f6101000a81548173ffffffffffffffffffffffffffffffffffffffff021916908373ffffffffffffffffffffffffffffffffffffffff1602179055508173ffffffffffffffffffffffffffffffffffffffff168173ffffffffffffffffffffffffffffffffffffffff167f8be0079c531659141344cd1fd0a4f28419497f9722a3daafe3b4186f6b6457e060405160405180910390a35050565b5f81519050919050565b5f82825260208201905092915050565b5f5b838110156112b657808201518184015260208101905061129b565b5f8484015250505050565b5f601f19601f8301169050919050565b5f6112db8261127f565b6112e58185611289565b93506112f5818560208601611299565b6112fe816112c1565b840191505092915050565b5f6020820190508181035f83015261132181846112d1565b905092915050565b5f80fd5b5f73ffffffffffffffffffffffffffffffffffffffff82169050919050565b5f6113568261132d565b9050919050565b6113668161134c565b8114611370575f80fd5b50565b5f813590506113818161135d565b92915050565b5f819050919050565b61139981611387565b81146113a3575f80fd5b50565b5f813590506113b481611390565b92915050565b5f80604083850312156113d0576113cf611329565b5b5f6113dd85828601611373565b92505060206113ee858286016113a6565b9150509250929050565b5f8115159050919050565b61140c816113f8565b82525050565b5f6020820190506114255f830184611403565b92915050565b61143481611387565b82525050565b5f60208201905061144d5f83018461142b565b92915050565b5f805f6060848603121561146a57611469611329565b5b5f61147786828701611373565b935050602061148886828701611373565b9250506040611499868287016113a6565b9150509250925092565b5f60ff82169050919050565b6114b8816114a3565b82525050565b5f6020820190506114d15f8301846114af565b92915050565b6114e08161134c565b82525050565b5f6020820190506114f95f8301846114d7565b92915050565b5f6020828403121561151457611513611329565b5b5f61152184828501611373565b91505092915050565b5f80604083850312156115405761153f611329565b5b5f61154d85828601611373565b925050602061155e85828601611373565b9150509250929050565b7f4e487b71000000000000000000000000000000000000000000000000000000005f52602260045260245ffd5b5f60028204905060018216806115ac57607f821691505b6020821081036115bf576115be611568565b5b50919050565b5f6060820190506115d85f8301866114d7565b6115e5602083018561142b565b6115f2604083018461142b565b949350505050565b7f4e487b71000000000000000000000000000000000000000000000000000000005f52601160045260245ffd5b5f61163182611387565b915061163c83611387565b9250828201905080821115611654576116536115fa565b5b9291505056fea264697066735822122086eefc806b7bfa8fb18e916d2f2480645f7efebc728cbcc2d814c2fecd137a2e64736f6c634300081400330000000000000000000000004ff9193756e090795742756e043edebf50eeaa47",
        "nonce": "0x13e",
        "chainId": "0xaa36a7"
      },
      "additionalContracts": [],
      "isFixedGasLimit": false
    },
    {
      "hash": "0xe86c732e2c64230823b4558722f675a46c59726e826bb838d17d9e5ec22779bc",
      "transactionType": "CREATE",
      "contractName": "RewardsVault",
      "contractAddress": "0xacd596f9546a32469e4d7120593e7b54e119351b",
      "function": null,
      "arguments": [
        "0x4fF9193756e090795742756E043EdeBf50EEAA47"
      ],
      "transaction": {
        "from": "0x4ff9193756e090795742756e043edebf50eeaa47",
        "gas": "0x17563f",
        "value": "0x0",
        "input": "0x608060405234801562000010575f80fd5b5060405162001465380380620014658339818101604052810190620000369190620002ba565b805f73ffffffffffffffffffffffffffffffffffffffff168173ffffffffffffffffffffffffffffffffffffffff1603620000aa575f6040517f1e4fbdf7000000000000000000000000000000000000000000000000000000008152600401620000a19190620002fb565b60405180910390fd5b620000bb816200012a60201b60201c565b506001620000de620000d26200016260201b60201c565b6200018b60201b60201c565b5f018190555060058081905550601460068190555068056bc75e2d63100000600781905550680ad78ebc5ac6200000600881905550681043561a88293000006009819055505062000316565b60015f6101000a81549073ffffffffffffffffffffffffffffffffffffffff02191690556200015f816200019460201b60201c565b50565b5f7f9b779b17422d0df92223018b32b4d1fa46e071723d6817e2486d003becc55f005f1b905090565b5f819050919050565b5f805f9054906101000a900473ffffffffffffffffffffffffffffffffffffffff169050815f806101000a81548173ffffffffffffffffffffffffffffffffffffffff021916908373ffffffffffffffffffffffffffffffffffffffff1602179055508173ffffffffffffffffffffffffffffffffffffffff168173ffffffffffffffffffffffffffffffffffffffff167f8be0079c531659141344cd1fd0a4f28419497f9722a3daafe3b4186f6b6457e060405160405180910390a35050565b5f80fd5b5f73ffffffffffffffffffffffffffffffffffffffff82169050919050565b5f620002848262000259565b9050919050565b620002968162000278565b8114620002a1575f80fd5b50565b5f81519050620002b4816200028b565b92915050565b5f60208284031215620002d257620002d162000255565b5b5f620002e184828501620002a4565b91505092915050565b620002f58162000278565b82525050565b5f602082019050620003105f830184620002ea565b92915050565b61114180620003245f395ff3fe608060405234801561000f575f80fd5b5060043610610109575f3560e01c8063794005d4116100a0578063911ab2e91161006f578063911ab2e914610247578063c7d0b0cf14610263578063e30c397814610281578063f2fde38b1461029f578063fbd5e156146102bb57610109565b8063794005d4146101e557806379ba509714610201578063894f6d1f1461020b5780638da5cb5b1461022957610109565b806342ad7aba116100dc57806342ad7aba1461018357806365715ea01461019f578063702c5a4d146101bd578063715018a6146101db57610109565b8063092193ab1461010d5780631039298f14610129578063192283c01461014757806337c2ab0614610165575b5f80fd5b61012760048036038101906101229190610e00565b6102d9565b005b610131610605565b60405161013e9190610e43565b60405180910390f35b61014f61060b565b60405161015c9190610e74565b60405180910390f35b61016d610611565b60405161017a9190610ee8565b60405180910390f35b61019d60048036038101906101989190610f55565b610636565b005b6101a76106e0565b6040516101b49190610e74565b60405180910390f35b6101c56106e6565b6040516101d29190610e43565b60405180910390f35b6101e36106ec565b005b6101ff60048036038101906101fa9190610e00565b6106ff565b005b61020961082f565b005b6102136108bd565b6040516102209190610e74565b60405180910390f35b6102316108c3565b60405161023e9190610fdb565b60405180910390f35b610261600480360381019061025c9190610e00565b6108ea565b005b61026b610a1a565b6040516102789190610e43565b60405180910390f35b610289610a20565b6040516102969190610fdb565b60405180910390f35b6102b960048036038101906102b49190610e00565b610a48565b005b6102c3610af4565b6040516102d09190611014565b60405180910390f35b6102e1610b19565b60035f9054906101000a900473ffffffffffffffffffffffffffffffffffffffff1673ffffffffffffffffffffffffffffffffffffffff163373ffffffffffffffffffffffffffffffffffffffff1614610367576040517fa8b6544a00000000000000000000000000000000000000000000000000000000815260040160405180910390fd5b5f73ffffffffffffffffffffffffffffffffffffffff1660025f9054906101000a900473ffffffffffffffffffffffffffffffffffffffff1673ffffffffffffffffffffffffffffffffffffffff16036103ed576040517f4b62f01300000000000000000000000000000000000000000000000000000000815260040160405180910390fd5b5f73ffffffffffffffffffffffffffffffffffffffff1660035f9054906101000a900473ffffffffffffffffffffffffffffffffffffffff1673ffffffffffffffffffffffffffffffffffffffff1603610473576040517fe048e71000000000000000000000000000000000000000000000000000000000815260040160405180910390fd5b5f60035f9054906101000a900473ffffffffffffffffffffffffffffffffffffffff1673ffffffffffffffffffffffffffffffffffffffff1663b9f79451836040518263ffffffff1660e01b81526004016104ce9190610fdb565b602060405180830381865afa1580156104e9573d5f803e3d5ffd5b505050506040513d601f19601f8201168201806040525081019061050d9190611041565b90505f8061051a83610b3b565b9150915060025f9054906101000a900473ffffffffffffffffffffffffffffffffffffffff1673ffffffffffffffffffffffffffffffffffffffff166340c10f1985846040518363ffffffff1660e01b815260040161057a92919061106c565b5f604051808303815f87803b158015610591575f80fd5b505af11580156105a3573d5f803e3d5ffd5b505050508373ffffffffffffffffffffffffffffffffffffffff167f53118bff2fb56701752f5bf54053d24fb83cec92f9f6ce664b90c38a2991caa483836040516105ef929190611093565b60405180910390a2505050610602610b7a565b50565b60055481565b60085481565b60025f9054906101000a900473ffffffffffffffffffffffffffffffffffffffff1681565b61063e610b94565b838512610677576040517f9100d34700000000000000000000000000000000000000000000000000000000815260040160405180910390fd5b84600581905550836006819055508260078190555081600881905550806009819055507fc5e0f49a634b3497b360791e1533bf4d4f08f4596d6fdf7c303b5ec825711a2385858585856040516106d19594939291906110ba565b60405180910390a15050505050565b60095481565b60045481565b6106f4610b94565b6106fd5f610c1b565b565b610707610b94565b5f73ffffffffffffffffffffffffffffffffffffffff168173ffffffffffffffffffffffffffffffffffffffff160361076c576040517fd92e233d00000000000000000000000000000000000000000000000000000000815260040160405180910390fd5b5f60035f9054906101000a900473ffffffffffffffffffffffffffffffffffffffff1690508160035f6101000a81548173ffffffffffffffffffffffffffffffffffffffff021916908373ffffffffffffffffffffffffffffffffffffffff1602179055508173ffffffffffffffffffffffffffffffffffffffff168173ffffffffffffffffffffffffffffffffffffffff167fd10db78e710f894d2a83aa1482aeb1c909eeb34b7f140182454f68607e1b4b8760405160405180910390a35050565b5f610838610c4b565b90508073ffffffffffffffffffffffffffffffffffffffff16610859610a20565b73ffffffffffffffffffffffffffffffffffffffff16146108b157806040517f118cdaa70000000000000000000000000000000000000000000000000000000081526004016108a89190610fdb565b60405180910390fd5b6108ba81610c1b565b50565b60075481565b5f805f9054906101000a900473ffffffffffffffffffffffffffffffffffffffff16905090565b6108f2610b94565b5f73ffffffffffffffffffffffffffffffffffffffff168173ffffffffffffffffffffffffffffffffffffffff1603610957576040517fd92e233d00000000000000000000000000000000000000000000000000000000815260040160405180910390fd5b5f60025f9054906101000a900473ffffffffffffffffffffffffffffffffffffffff1690508160025f6101000a81548173ffffffffffffffffffffffffffffffffffffffff021916908373ffffffffffffffffffffffffffffffffffffffff1602179055508173ffffffffffffffffffffffffffffffffffffffff168173ffffffffffffffffffffffffffffffffffffffff167f41ad368761e18cdc3c388f2eac1602c0e34804556d0948dd50ff4a3aa1da00ab60405160405180910390a35050565b60065481565b5f60015f9054906101000a900473ffffffffffffffffffffffffffffffffffffffff16905090565b610a50610b94565b8060015f6101000a81548173ffffffffffffffffffffffffffffffffffffffff021916908373ffffffffffffffffffffffffffffffffffffffff1602179055508073ffffffffffffffffffffffffffffffffffffffff16610aaf6108c3565b73ffffffffffffffffffffffffffffffffffffffff167f38d16b8cac22d99fc7c124b9cd0de2d3fa1faef420bfe791d8c362d765e2270060405160405180910390a350565b60035f9054906101000a900473ffffffffffffffffffffffffffffffffffffffff1681565b610b21610c52565b6002610b33610b2e610c93565b610cbc565b5f0181905550565b5f806006548312610b5457600954600391509150610b75565b6005548312610b6b57600854600291509150610b75565b6007546001915091505b915091565b6001610b8c610b87610c93565b610cbc565b5f0181905550565b610b9c610c4b565b73ffffffffffffffffffffffffffffffffffffffff16610bba6108c3565b73ffffffffffffffffffffffffffffffffffffffff1614610c1957610bdd610c4b565b6040517f118cdaa7000000000000000000000000000000000000000000000000000000008152600401610c109190610fdb565b60405180910390fd5b565b60015f6101000a81549073ffffffffffffffffffffffffffffffffffffffff0219169055610c4881610cc5565b50565b5f33905090565b610c5a610d86565b15610c91576040517f3ee5aeb500000000000000000000000000000000000000000000000000000000815260040160405180910390fd5b565b5f7f9b779b17422d0df92223018b32b4d1fa46e071723d6817e2486d003becc55f005f1b905090565b5f819050919050565b5f805f9054906101000a900473ffffffffffffffffffffffffffffffffffffffff169050815f806101000a81548173ffffffffffffffffffffffffffffffffffffffff021916908373ffffffffffffffffffffffffffffffffffffffff1602179055508173ffffffffffffffffffffffffffffffffffffffff168173ffffffffffffffffffffffffffffffffffffffff167f8be0079c531659141344cd1fd0a4f28419497f9722a3daafe3b4186f6b6457e060405160405180910390a35050565b5f6002610d99610d94610c93565b610cbc565b5f015414905090565b5f80fd5b5f73ffffffffffffffffffffffffffffffffffffffff82169050919050565b5f610dcf82610da6565b9050919050565b610ddf81610dc5565b8114610de9575f80fd5b50565b5f81359050610dfa81610dd6565b92915050565b5f60208284031215610e1557610e14610da2565b5b5f610e2284828501610dec565b91505092915050565b5f819050919050565b610e3d81610e2b565b82525050565b5f602082019050610e565f830184610e34565b92915050565b5f819050919050565b610e6e81610e5c565b82525050565b5f602082019050610e875f830184610e65565b92915050565b5f819050919050565b5f610eb0610eab610ea684610da6565b610e8d565b610da6565b9050919050565b5f610ec182610e96565b9050919050565b5f610ed282610eb7565b9050919050565b610ee281610ec8565b82525050565b5f602082019050610efb5f830184610ed9565b92915050565b610f0a81610e2b565b8114610f14575f80fd5b50565b5f81359050610f2581610f01565b92915050565b610f3481610e5c565b8114610f3e575f80fd5b50565b5f81359050610f4f81610f2b565b92915050565b5f805f805f60a08688031215610f6e57610f6d610da2565b5b5f610f7b88828901610f17565b9550506020610f8c88828901610f17565b9450506040610f9d88828901610f41565b9350506060610fae88828901610f41565b9250506080610fbf88828901610f41565b9150509295509295909350565b610fd581610dc5565b82525050565b5f602082019050610fee5f830184610fcc565b92915050565b5f610ffe82610eb7565b9050919050565b61100e81610ff4565b82525050565b5f6020820190506110275f830184611005565b92915050565b5f8151905061103b81610f01565b92915050565b5f6020828403121561105657611055610da2565b5b5f6110638482850161102d565b91505092915050565b5f60408201905061107f5f830185610fcc565b61108c6020830184610e65565b9392505050565b5f6040820190506110a65f830185610e65565b6110b36020830184610e65565b9392505050565b5f60a0820190506110cd5f830188610e34565b6110da6020830187610e34565b6110e76040830186610e65565b6110f46060830185610e65565b6111016080830184610e65565b969550505050505056fea2646970667358221220b997a3a10c14ca26d445fa99d8b7afb452711013d12eee2e3ff5655893d60a9264736f6c634300081400330000000000000000000000004ff9193756e090795742756e043edebf50eeaa47",
        "nonce": "0x13f",
        "chainId": "0xaa36a7"
      },
      "additionalContracts": [],
      "isFixedGasLimit": false
    },
    {
      "hash": "0xf682f020a131950adab4f698726a86f6cb931c67f1c900ee78e402854a7c29ac",
      "transactionType": "CREATE",
      "contractName": "ReviewRegistry",
      "contractAddress": "0xed08ee493161fb3ea1fb8935271ed6e85fdd8c0c",
      "function": null,
      "arguments": [
        "0x4fF9193756e090795742756E043EdeBf50EEAA47"
      ],
      "transaction": {
        "from": "0x4ff9193756e090795742756e043edebf50eeaa47",
        "gas": "0x2a5b32",
        "value": "0x0",
        "input": "0x608060405234801562000010575f80fd5b50604051620027873803806200278783398181016040528101906200003691906200027b565b805f73ffffffffffffffffffffffffffffffffffffffff168173ffffffffffffffffffffffffffffffffffffffff1603620000aa575f6040517f1e4fbdf7000000000000000000000000000000000000000000000000000000008152600401620000a19190620002bc565b60405180910390fd5b620000bb81620000eb60201b60201c565b506001620000de620000d26200012360201b60201c565b6200014c60201b60201c565b5f018190555050620002d7565b60015f6101000a81549073ffffffffffffffffffffffffffffffffffffffff021916905562000120816200015560201b60201c565b50565b5f7f9b779b17422d0df92223018b32b4d1fa46e071723d6817e2486d003becc55f005f1b905090565b5f819050919050565b5f805f9054906101000a900473ffffffffffffffffffffffffffffffffffffffff169050815f806101000a81548173ffffffffffffffffffffffffffffffffffffffff021916908373ffffffffffffffffffffffffffffffffffffffff1602179055508173ffffffffffffffffffffffffffffffffffffffff168173ffffffffffffffffffffffffffffffffffffffff167f8be0079c531659141344cd1fd0a4f28419497f9722a3daafe3b4186f6b6457e060405160405180910390a35050565b5f80fd5b5f73ffffffffffffffffffffffffffffffffffffffff82169050919050565b5f62000245826200021a565b9050919050565b620002578162000239565b811462000262575f80fd5b50565b5f8151905062000275816200024c565b92915050565b5f6020828403121562000293576200029262000216565b5b5f620002a28482850162000265565b91505092915050565b620002b68162000239565b82525050565b5f602082019050620002d15f830184620002ab565b92915050565b6124a280620002e55f395ff3fe608060405234801561000f575f80fd5b5060043610610171575f3560e01c806379ba5097116100dc578063e30c397811610095578063f2fde38b1161006f578063f2fde38b1461040a578063f31fdad414610426578063f53d6e1714610442578063f5bb3e021461046057610171565b8063e30c397814610399578063e83ddcea146103b7578063e95a644f146103ee57610171565b806379ba5097146102e55780638456cb59146102ef5780638da5cb5b146102f9578063b984c6ec14610317578063b9f794511461034b578063e179aef41461037b57610171565b8063473fa3391161012e578063473fa339146102495780635579ed01146102655780635c975abb1461028357806365200069146102a1578063715018a6146102bf57806374a5b693146102c957610171565b806301ddf070146101755780631d185c73146101915780632d3f6cc9146101c1578063396e77e7146101f15780633f4ba83a1461020f5780634385963214610219575b5f80fd5b61018f600480360381019061018a9190611a6c565b61047c565b005b6101ab60048036038101906101a69190611af1565b610492565b6040516101b89190611b3e565b60405180910390f35b6101db60048036038101906101d69190611b57565b6104b2565b6040516101e89190611b3e565b60405180910390f35b6101f96104d2565b6040516102069190611b3e565b60405180910390f35b6102176104d8565b005b610233600480360381019061022e9190611b57565b6104ea565b6040516102409190611baf565b60405180910390f35b610263600480360381019061025e9190611c29565b610514565b005b61026d6106f0565b60405161027a9190611ce8565b60405180910390f35b61028b610715565b6040516102989190611baf565b60405180910390f35b6102a961072b565b6040516102b69190611b3e565b60405180910390f35b6102c7610732565b005b6102e360048036038101906102de9190611d37565b610745565b005b6102ed610c42565b005b6102f7610cd0565b005b610301610ce2565b60405161030e9190611ce8565b60405180910390f35b610331600480360381019061032c9190611a6c565b610d09565b604051610342959493929190611e32565b60405180910390f35b61036560048036038101906103609190611e98565b610ed9565b6040516103729190611edb565b60405180910390f35b610383610eee565b6040516103909190611b3e565b60405180910390f35b6103a1610ef4565b6040516103ae9190611ce8565b60405180910390f35b6103d160048036038101906103cc9190611a6c565b610f1c565b6040516103e5989796959493929190611f03565b60405180910390f35b61040860048036038101906104039190611a6c565b611012565b005b610424600480360381019061041f9190611e98565b611114565b005b610440600480360381019061043b9190611a6c565b6111c0565b005b61044a6111d5565b6040516104579190611b3e565b60405180910390f35b61047a60048036038101906104759190611e98565b6111dc565b005b61048461130c565b61048f81600161134d565b50565b6008602052815f5260405f20602052805f5260405f205f91509150505481565b6007602052815f5260405f20602052805f5260405f205f91509150505481565b60045481565b6104e06116e3565b6104e861176a565b565b6009602052815f5260405f20602052805f5260405f205f915091509054906101000a900460ff1681565b61051c6116e3565b5f60035f81548092919061052f90611fb3565b9190505590506040518060a0016040528082815260200188888080601f0160208091040260200160405190810160405280939291908181526020018383808284375f81840152601f19601f82011690508083019250505050505050815260200186868080601f0160208091040260200160405190810160405280939291908181526020018383808284375f81840152601f19601f82011690508083019250505050505050815260200184848080601f0160208091040260200160405190810160405280939291908181526020018383808284375f81840152601f19601f8201169050808301925050505050505081526020016001151581525060055f8381526020019081526020015f205f820151815f015560208201518160010190816106569190612221565b50604082015181600201908161066c9190612221565b5060608201518160030190816106829190612221565b506080820151816004015f6101000a81548160ff021916908315150217905550905050807f3df1ef423accc9fa5ddf0ee8cf9791e181626a48a8c8b20fc001e835804019608888888888886040516106df9695949392919061232a565b60405180910390a250505050505050565b60025f9054906101000a900473ffffffffffffffffffffffffffffffffffffffff1681565b5f600160149054906101000a900460ff16905090565b6201518081565b61073a6116e3565b6107435f6117cc565b565b61074d61130c565b6107556117fc565b60055f8581526020019081526020015f206004015f9054906101000a900460ff166107ac576040517fe042642b00000000000000000000000000000000000000000000000000000000815260040160405180910390fd5b60018360ff1610806107c1575060058360ff16115b156107f8576040517fd29df2dd00000000000000000000000000000000000000000000000000000000815260040160405180910390fd5b5f60075f8681526020019081526020015f205f3373ffffffffffffffffffffffffffffffffffffffff1673ffffffffffffffffffffffffffffffffffffffff1681526020019081526020015f205490505f81148061086357506201518081610860919061237a565b42115b1561089a576040517f99d907db00000000000000000000000000000000000000000000000000000000815260040160405180910390fd5b5f60085f3373ffffffffffffffffffffffffffffffffffffffff1673ffffffffffffffffffffffffffffffffffffffff1681526020019081526020015f205f8781526020019081526020015f205490505f811415801561090757506202a30081610904919061237a565b42105b1561093e576040517f0d18e52e00000000000000000000000000000000000000000000000000000000815260040160405180910390fd5b5f60045f81548092919061095190611fb3565b9190505590506040518061010001604052808281526020018881526020013373ffffffffffffffffffffffffffffffffffffffff1681526020018760ff16815260200186868080601f0160208091040260200160405190810160405280939291908181526020018383808284375f81840152601f19601f8201169050808301925050505050505081526020014281526020015f81526020015f81525060065f8381526020019081526020015f205f820151815f0155602082015181600101556040820151816002015f6101000a81548173ffffffffffffffffffffffffffffffffffffffff021916908373ffffffffffffffffffffffffffffffffffffffff16021790555060608201518160020160146101000a81548160ff021916908360ff1602179055506080820151816003019081610a8c9190612221565b5060a0820151816004015560c0820151816005015560e082015181600601559050504260085f3373ffffffffffffffffffffffffffffffffffffffff1673ffffffffffffffffffffffffffffffffffffffff1681526020019081526020015f205f8981526020019081526020015f20819055503373ffffffffffffffffffffffffffffffffffffffff1687827fd84dfcfcfd2992e00894d48c250bc77055853ae69b2ee91d4dc85c5db15789a189898942604051610b4d94939291906123ad565b60405180910390a45f73ffffffffffffffffffffffffffffffffffffffff1660025f9054906101000a900473ffffffffffffffffffffffffffffffffffffffff1673ffffffffffffffffffffffffffffffffffffffff1614610c315760025f9054906101000a900473ffffffffffffffffffffffffffffffffffffffff1673ffffffffffffffffffffffffffffffffffffffff1663092193ab336040518263ffffffff1660e01b8152600401610c039190611ce8565b5f604051808303815f87803b158015610c1a575f80fd5b505af1158015610c2c573d5f803e3d5ffd5b505050505b505050610c3c61181e565b50505050565b5f610c4b611838565b90508073ffffffffffffffffffffffffffffffffffffffff16610c6c610ef4565b73ffffffffffffffffffffffffffffffffffffffff1614610cc457806040517f118cdaa7000000000000000000000000000000000000000000000000000000008152600401610cbb9190611ce8565b60405180910390fd5b610ccd816117cc565b50565b610cd86116e3565b610ce061183f565b565b5f805f9054906101000a900473ffffffffffffffffffffffffffffffffffffffff16905090565b6005602052805f5260405f205f91509050805f015490806001018054610d2e90612054565b80601f0160208091040260200160405190810160405280929190818152602001828054610d5a90612054565b8015610da55780601f10610d7c57610100808354040283529160200191610da5565b820191905f5260205f20905b815481529060010190602001808311610d8857829003601f168201915b505050505090806002018054610dba90612054565b80601f0160208091040260200160405190810160405280929190818152602001828054610de690612054565b8015610e315780601f10610e0857610100808354040283529160200191610e31565b820191905f5260205f20905b815481529060010190602001808311610e1457829003601f168201915b505050505090806003018054610e4690612054565b80601f0160208091040260200160405190810160405280929190818152602001828054610e7290612054565b8015610ebd5780601f10610e9457610100808354040283529160200191610ebd565b820191905f5260205f20905b815481529060010190602001808311610ea057829003601f168201915b505050505090806004015f9054906101000a900460ff16905085565b600a602052805f5260405f205f915090505481565b60035481565b5f60015f9054906101000a900473ffffffffffffffffffffffffffffffffffffffff16905090565b6006602052805f5260405f205f91509050805f015490806001015490806002015f9054906101000a900473ffffffffffffffffffffffffffffffffffffffff16908060020160149054906101000a900460ff1690806003018054610f7f90612054565b80601f0160208091040260200160405190810160405280929190818152602001828054610fab90612054565b8015610ff65780601f10610fcd57610100808354040283529160200191610ff6565b820191905f5260205f20905b815481529060010190602001808311610fd957829003601f168201915b5050505050908060040154908060050154908060060154905088565b61101a61130c565b60055f8281526020019081526020015f206004015f9054906101000a900460ff16611071576040517fe042642b00000000000000000000000000000000000000000000000000000000815260040160405180910390fd5b4260075f8381526020019081526020015f205f3373ffffffffffffffffffffffffffffffffffffffff1673ffffffffffffffffffffffffffffffffffffffff1681526020019081526020015f20819055503373ffffffffffffffffffffffffffffffffffffffff16817f6b2e4e52ba8b5cff4a90d18b1efd0f88c74ed562b5dd3b13f01a1759699b2db2426040516111099190611b3e565b60405180910390a350565b61111c6116e3565b8060015f6101000a81548173ffffffffffffffffffffffffffffffffffffffff021916908373ffffffffffffffffffffffffffffffffffffffff1602179055508073ffffffffffffffffffffffffffffffffffffffff1661117b610ce2565b73ffffffffffffffffffffffffffffffffffffffff167f38d16b8cac22d99fc7c124b9cd0de2d3fa1faef420bfe791d8c362d765e2270060405160405180910390a350565b6111c861130c565b6111d2815f61134d565b50565b6202a30081565b6111e46116e3565b5f73ffffffffffffffffffffffffffffffffffffffff168173ffffffffffffffffffffffffffffffffffffffff1603611249576040517fd92e233d00000000000000000000000000000000000000000000000000000000815260040160405180910390fd5b5f60025f9054906101000a900473ffffffffffffffffffffffffffffffffffffffff1690508160025f6101000a81548173ffffffffffffffffffffffffffffffffffffffff021916908373ffffffffffffffffffffffffffffffffffffffff1602179055508173ffffffffffffffffffffffffffffffffffffffff168173ffffffffffffffffffffffffffffffffffffffff167ff2ce85500052e4bce5775e8ae4c693f7306abf01169eb3a48860dce05cb91c3160405160405180910390a35050565b611314610715565b1561134b576040517fd93c066500000000000000000000000000000000000000000000000000000000815260040160405180910390fd5b565b5f60065f8481526020019081526020015f2090505f81600401540361139e576040517fa51df02800000000000000000000000000000000000000000000000000000000815260040160405180910390fd5b60095f8481526020019081526020015f205f3373ffffffffffffffffffffffffffffffffffffffff1673ffffffffffffffffffffffffffffffffffffffff1681526020019081526020015f205f9054906101000a900460ff161561142e576040517f7c9a1cf900000000000000000000000000000000000000000000000000000000815260040160405180910390fd5b600160095f8581526020019081526020015f205f3373ffffffffffffffffffffffffffffffffffffffff1673ffffffffffffffffffffffffffffffffffffffff1681526020019081526020015f205f6101000a81548160ff021916908315150217905550811561152d57806005015f8154809291906114ac90611fb3565b91905055506001600a5f836002015f9054906101000a900473ffffffffffffffffffffffffffffffffffffffff1673ffffffffffffffffffffffffffffffffffffffff1673ffffffffffffffffffffffffffffffffffffffff1681526020019081526020015f205f82825461152191906123eb565b925050819055506115be565b806006015f81548092919061154190611fb3565b91905055506001600a5f836002015f9054906101000a900473ffffffffffffffffffffffffffffffffffffffff1673ffffffffffffffffffffffffffffffffffffffff1673ffffffffffffffffffffffffffffffffffffffff1681526020019081526020015f205f8282546115b6919061242c565b925050819055505b3373ffffffffffffffffffffffffffffffffffffffff16837fc6b0caf0039f6dcd1cf9e0c5ce6d527392c56b3363d20f4bf20a0ea906d23a4a846040516116059190611baf565b60405180910390a3806002015f9054906101000a900473ffffffffffffffffffffffffffffffffffffffff1673ffffffffffffffffffffffffffffffffffffffff167f21b93f5364d09d606ec33450e45ad2e33958e3dac6c4f771ed1218f1eca47db5600a5f846002015f9054906101000a900473ffffffffffffffffffffffffffffffffffffffff1673ffffffffffffffffffffffffffffffffffffffff1673ffffffffffffffffffffffffffffffffffffffff1681526020019081526020015f20546040516116d69190611edb565b60405180910390a2505050565b6116eb611838565b73ffffffffffffffffffffffffffffffffffffffff16611709610ce2565b73ffffffffffffffffffffffffffffffffffffffff16146117685761172c611838565b6040517f118cdaa700000000000000000000000000000000000000000000000000000000815260040161175f9190611ce8565b60405180910390fd5b565b6117726118a1565b5f600160146101000a81548160ff0219169083151502179055507f5db9ee0a495bf2e6ff9c91a7834c1ba4fdd244a5e8aa4e537bd38aeae4b073aa6117b5611838565b6040516117c29190611ce8565b60405180910390a1565b60015f6101000a81549073ffffffffffffffffffffffffffffffffffffffff02191690556117f9816118e1565b50565b6118046119a2565b60026118166118116119e3565b611a0c565b5f0181905550565b600161183061182b6119e3565b611a0c565b5f0181905550565b5f33905090565b61184761130c565b60018060146101000a81548160ff0219169083151502179055507f62e78cea01bee320cd4e420270b5ea74000d11b0c9f74754ebdbfc544b05a25861188a611838565b6040516118979190611ce8565b60405180910390a1565b6118a9610715565b6118df576040517f8dfc202b00000000000000000000000000000000000000000000000000000000815260040160405180910390fd5b565b5f805f9054906101000a900473ffffffffffffffffffffffffffffffffffffffff169050815f806101000a81548173ffffffffffffffffffffffffffffffffffffffff021916908373ffffffffffffffffffffffffffffffffffffffff1602179055508173ffffffffffffffffffffffffffffffffffffffff168173ffffffffffffffffffffffffffffffffffffffff167f8be0079c531659141344cd1fd0a4f28419497f9722a3daafe3b4186f6b6457e060405160405180910390a35050565b6119aa611a15565b156119e1576040517f3ee5aeb500000000000000000000000000000000000000000000000000000000815260040160405180910390fd5b565b5f7f9b779b17422d0df92223018b32b4d1fa46e071723d6817e2486d003becc55f005f1b905090565b5f819050919050565b5f6002611a28611a236119e3565b611a0c565b5f015414905090565b5f80fd5b5f80fd5b5f819050919050565b611a4b81611a39565b8114611a55575f80fd5b50565b5f81359050611a6681611a42565b92915050565b5f60208284031215611a8157611a80611a31565b5b5f611a8e84828501611a58565b91505092915050565b5f73ffffffffffffffffffffffffffffffffffffffff82169050919050565b5f611ac082611a97565b9050919050565b611ad081611ab6565b8114611ada575f80fd5b50565b5f81359050611aeb81611ac7565b92915050565b5f8060408385031215611b0757611b06611a31565b5b5f611b1485828601611add565b9250506020611b2585828601611a58565b9150509250929050565b611b3881611a39565b82525050565b5f602082019050611b515f830184611b2f565b92915050565b5f8060408385031215611b6d57611b6c611a31565b5b5f611b7a85828601611a58565b9250506020611b8b85828601611add565b9150509250929050565b5f8115159050919050565b611ba981611b95565b82525050565b5f602082019050611bc25f830184611ba0565b92915050565b5f80fd5b5f80fd5b5f80fd5b5f8083601f840112611be957611be8611bc8565b5b8235905067ffffffffffffffff811115611c0657611c05611bcc565b5b602083019150836001820283011115611c2257611c21611bd0565b5b9250929050565b5f805f805f8060608789031215611c4357611c42611a31565b5b5f87013567ffffffffffffffff811115611c6057611c5f611a35565b5b611c6c89828a01611bd4565b9650965050602087013567ffffffffffffffff811115611c8f57611c8e611a35565b5b611c9b89828a01611bd4565b9450945050604087013567ffffffffffffffff811115611cbe57611cbd611a35565b5b611cca89828a01611bd4565b92509250509295509295509295565b611ce281611ab6565b82525050565b5f602082019050611cfb5f830184611cd9565b92915050565b5f60ff82169050919050565b611d1681611d01565b8114611d20575f80fd5b50565b5f81359050611d3181611d0d565b92915050565b5f805f8060608587031215611d4f57611d4e611a31565b5b5f611d5c87828801611a58565b9450506020611d6d87828801611d23565b935050604085013567ffffffffffffffff811115611d8e57611d8d611a35565b5b611d9a87828801611bd4565b925092505092959194509250565b5f81519050919050565b5f82825260208201905092915050565b5f5b83811015611ddf578082015181840152602081019050611dc4565b5f8484015250505050565b5f601f19601f8301169050919050565b5f611e0482611da8565b611e0e8185611db2565b9350611e1e818560208601611dc2565b611e2781611dea565b840191505092915050565b5f60a082019050611e455f830188611b2f565b8181036020830152611e578187611dfa565b90508181036040830152611e6b8186611dfa565b90508181036060830152611e7f8185611dfa565b9050611e8e6080830184611ba0565b9695505050505050565b5f60208284031215611ead57611eac611a31565b5b5f611eba84828501611add565b91505092915050565b5f819050919050565b611ed581611ec3565b82525050565b5f602082019050611eee5f830184611ecc565b92915050565b611efd81611d01565b82525050565b5f61010082019050611f175f83018b611b2f565b611f24602083018a611b2f565b611f316040830189611cd9565b611f3e6060830188611ef4565b8181036080830152611f508187611dfa565b9050611f5f60a0830186611b2f565b611f6c60c0830185611b2f565b611f7960e0830184611b2f565b9998505050505050505050565b7f4e487b71000000000000000000000000000000000000000000000000000000005f52601160045260245ffd5b5f611fbd82611a39565b91507fffffffffffffffffffffffffffffffffffffffffffffffffffffffffffffffff8203611fef57611fee611f86565b5b600182019050919050565b7f4e487b71000000000000000000000000000000000000000000000000000000005f52604160045260245ffd5b7f4e487b71000000000000000000000000000000000000000000000000000000005f52602260045260245ffd5b5f600282049050600182168061206b57607f821691505b60208210810361207e5761207d612027565b5b50919050565b5f819050815f5260205f209050919050565b5f6020601f8301049050919050565b5f82821b905092915050565b5f600883026120e07fffffffffffffffffffffffffffffffffffffffffffffffffffffffffffffffff826120a5565b6120ea86836120a5565b95508019841693508086168417925050509392505050565b5f819050919050565b5f61212561212061211b84611a39565b612102565b611a39565b9050919050565b5f819050919050565b61213e8361210b565b61215261214a8261212c565b8484546120b1565b825550505050565b5f90565b61216661215a565b612171818484612135565b505050565b5b81811015612194576121895f8261215e565b600181019050612177565b5050565b601f8211156121d9576121aa81612084565b6121b384612096565b810160208510156121c2578190505b6121d66121ce85612096565b830182612176565b50505b505050565b5f82821c905092915050565b5f6121f95f19846008026121de565b1980831691505092915050565b5f61221183836121ea565b9150826002028217905092915050565b61222a82611da8565b67ffffffffffffffff81111561224357612242611ffa565b5b61224d8254612054565b612258828285612198565b5f60209050601f831160018114612289575f8415612277578287015190505b6122818582612206565b8655506122e8565b601f19841661229786612084565b5f5b828110156122be57848901518255600182019150602085019450602081019050612299565b868310156122db57848901516122d7601f8916826121ea565b8355505b6001600288020188555050505b505050505050565b828183375f83830152505050565b5f6123098385611db2565b93506123168385846122f0565b61231f83611dea565b840190509392505050565b5f6060820190508181035f83015261234381888a6122fe565b905081810360208301526123588186886122fe565b9050818103604083015261236d8184866122fe565b9050979650505050505050565b5f61238482611a39565b915061238f83611a39565b92508282019050808211156123a7576123a6611f86565b5b92915050565b5f6060820190506123c05f830187611ef4565b81810360208301526123d38185876122fe565b90506123e26040830184611b2f565b95945050505050565b5f6123f582611ec3565b915061240083611ec3565b92508282019050828112155f8312168382125f84121516171561242657612425611f86565b5b92915050565b5f61243682611ec3565b915061244183611ec3565b925082820390508181125f8412168282135f85121516171561246657612465611f86565b5b9291505056fea2646970667358221220f4d8a916c4d36d5ecaa468c4c93f76e6de7c113a7ca78bb9e8ed0947f119a3e864736f6c634300081400330000000000000000000000004ff9193756e090795742756e043edebf50eeaa47",
        "nonce": "0x140",
        "chainId": "0xaa36a7"
      },
      "additionalContracts": [],
      "isFixedGasLimit": false
    },
    {
      "hash": "0x54119142431f98566d17bb1789d5b0ee97d7f64d8c4194517d209fbc1457f29e",
      "transactionType": "CALL",
      "contractName": "WelpToken",
      "contractAddress": "0xdf76bdf11812e93f31bdf6363fe3cd1fe4078a52",
      "function": "setRewardsVault(address)",
      "arguments": [
        "0xaCd596F9546A32469E4d7120593e7b54e119351B"
      ],
      "transaction": {
        "from": "0x4ff9193756e090795742756e043edebf50eeaa47",
        "to": "0xdf76bdf11812e93f31bdf6363fe3cd1fe4078a52",
        "gas": "0x103c2",
        "value": "0x0",
        "input": "0xf5bb3e02000000000000000000000000acd596f9546a32469e4d7120593e7b54e119351b",
        "nonce": "0x141",
        "chainId": "0xaa36a7"
      },
      "additionalContracts": [],
      "isFixedGasLimit": false
    },
    {
      "hash": "0x20c05d10be6436e265c6c0411766d58e16f8ca91ca3d9c7c837959e46126abcf",
      "transactionType": "CALL",
      "contractName": "RewardsVault",
      "contractAddress": "0xacd596f9546a32469e4d7120593e7b54e119351b",
      "function": "setWelpToken(address)",
      "arguments": [
        "0xDF76BdF11812E93f31BDF6363FE3CD1fE4078A52"
      ],
      "transaction": {
        "from": "0x4ff9193756e090795742756e043edebf50eeaa47",
        "to": "0xacd596f9546a32469e4d7120593e7b54e119351b",
        "gas": "0x10348",
        "value": "0x0",
        "input": "0x911ab2e9000000000000000000000000df76bdf11812e93f31bdf6363fe3cd1fe4078a52",
        "nonce": "0x142",
        "chainId": "0xaa36a7"
      },
      "additionalContracts": [],
      "isFixedGasLimit": false
    },
    {
      "hash": "0xa684f990078212792ca60180605f6b4adb1462694d258747c5255490ff639064",
      "transactionType": "CALL",
      "contractName": "RewardsVault",
      "contractAddress": "0xacd596f9546a32469e4d7120593e7b54e119351b",
      "function": "setReviewRegistry(address)",
      "arguments": [
        "0xed08ee493161Fb3eA1Fb8935271ed6E85fdD8C0C"
      ],
      "transaction": {
        "from": "0x4ff9193756e090795742756e043edebf50eeaa47",
        "to": "0xacd596f9546a32469e4d7120593e7b54e119351b",
        "gas": "0x1128b",
        "value": "0x0",
        "input": "0x794005d4000000000000000000000000ed08ee493161fb3ea1fb8935271ed6e85fdd8c0c",
        "nonce": "0x143",
        "chainId": "0xaa36a7"
      },
      "additionalContracts": [],
      "isFixedGasLimit": false
    },
    {
      "hash": "0x4b9f251d89e7ad4254a558d204ed9200ab61424a6ce4cfbf41ec6ba8b25173e2",
      "transactionType": "CALL",
      "contractName": "ReviewRegistry",
      "contractAddress": "0xed08ee493161fb3ea1fb8935271ed6e85fdd8c0c",
      "function": "setRewardsVault(address)",
      "arguments": [
        "0xaCd596F9546A32469E4d7120593e7b54e119351B"
      ],
      "transaction": {
        "from": "0x4ff9193756e090795742756e043edebf50eeaa47",
        "to": "0xed08ee493161fb3ea1fb8935271ed6e85fdd8c0c",
        "gas": "0x103c2",
        "value": "0x0",
        "input": "0xf5bb3e02000000000000000000000000acd596f9546a32469e4d7120593e7b54e119351b",
        "nonce": "0x144",
        "chainId": "0xaa36a7"
      },
      "additionalContracts": [],
      "isFixedGasLimit": false
    },
    {
      "hash": "0xfd6973c16281195fd0a3d181d2ad91df599aaeb883e861a4bb7707724f126861",
      "transactionType": "CALL",
      "contractName": "ReviewRegistry",
      "contractAddress": "0xed08ee493161fb3ea1fb8935271ed6e85fdd8c0c",
      "function": "addBusiness(string,string,string)",
      "arguments": [
        "Cosetta\\'s",
        "Italian Restaurant",
        "Saint Paul, MN"
      ],
      "transaction": {
        "from": "0x4ff9193756e090795742756e043edebf50eeaa47",
        "to": "0xed08ee493161fb3ea1fb8935271ed6e85fdd8c0c",
        "gas": "0x34245",
        "value": "0x0",
        "input": "0x473fa339000000000000000000000000000000000000000000000000000000000000006000000000000000000000000000000000000000000000000000000000000000a000000000000000000000000000000000000000000000000000000000000000e00000000000000000000000000000000000000000000000000000000000000009436f73657474612773000000000000000000000000000000000000000000000000000000000000000000000000000000000000000000000000000000000000124974616c69616e2052657374617572616e740000000000000000000000000000000000000000000000000000000000000000000000000000000000000000000e5361696e74205061756c2c204d4e000000000000000000000000000000000000",
        "nonce": "0x145",
        "chainId": "0xaa36a7"
      },
      "additionalContracts": [],
      "isFixedGasLimit": false
    },
    {
      "hash": "0x1df9bfc2a1cf97a9a87fba6e18097d71dc1160839ea21c9dbc905995637a1d7f",
      "transactionType": "CALL",
      "contractName": "ReviewRegistry",
      "contractAddress": "0xed08ee493161fb3ea1fb8935271ed6e85fdd8c0c",
      "function": "addBusiness(string,string,string)",
      "arguments": [
        "Revival",
        "Southern Restaurant",
        "Saint Paul, MN"
      ],
      "transaction": {
        "from": "0x4ff9193756e090795742756e043edebf50eeaa47",
        "to": "0xed08ee493161fb3ea1fb8935271ed6e85fdd8c0c",
        "gas": "0x322f6",
        "value": "0x0",
        "input": "0x473fa339000000000000000000000000000000000000000000000000000000000000006000000000000000000000000000000000000000000000000000000000000000a000000000000000000000000000000000000000000000000000000000000000e000000000000000000000000000000000000000000000000000000000000000075265766976616c000000000000000000000000000000000000000000000000000000000000000000000000000000000000000000000000000000000000000013536f75746865726e2052657374617572616e7400000000000000000000000000000000000000000000000000000000000000000000000000000000000000000e5361696e74205061756c2c204d4e000000000000000000000000000000000000",
        "nonce": "0x146",
        "chainId": "0xaa36a7"
      },
      "additionalContracts": [],
      "isFixedGasLimit": false
    },
    {
      "hash": "0xcdd7227e7c07edf81e1740369ea8223ae148ffe52c3efba6e69a96fa9a8745fd",
      "transactionType": "CALL",
      "contractName": "ReviewRegistry",
      "contractAddress": "0xed08ee493161fb3ea1fb8935271ed6e85fdd8c0c",
      "function": "addBusiness(string,string,string)",
      "arguments": [
        "Brunson\\'s Pub",
        "Bar & Grill",
        "Saint Paul, MN"
      ],
      "transaction": {
        "from": "0x4ff9193756e090795742756e043edebf50eeaa47",
        "to": "0xed08ee493161fb3ea1fb8935271ed6e85fdd8c0c",
        "gas": "0x322d4",
        "value": "0x0",
        "input": "0x473fa339000000000000000000000000000000000000000000000000000000000000006000000000000000000000000000000000000000000000000000000000000000a000000000000000000000000000000000000000000000000000000000000000e0000000000000000000000000000000000000000000000000000000000000000d4272756e736f6e27732050756200000000000000000000000000000000000000000000000000000000000000000000000000000000000000000000000000000b4261722026204772696c6c000000000000000000000000000000000000000000000000000000000000000000000000000000000000000000000000000000000e5361696e74205061756c2c204d4e000000000000000000000000000000000000",
        "nonce": "0x147",
        "chainId": "0xaa36a7"
      },
      "additionalContracts": [],
      "isFixedGasLimit": false
    },
    {
      "hash": "0x48b0178c30ab759b2b5770e29f177d35f48b4ea8906e36c525a605f4c47db5de",
      "transactionType": "CALL",
      "contractName": "ReviewRegistry",
      "contractAddress": "0xed08ee493161fb3ea1fb8935271ed6e85fdd8c0c",
      "function": "addBusiness(string,string,string)",
      "arguments": [
        "Golden Thyme Coffee",
        "Coffee Shop",
        "Saint Paul, MN"
      ],
      "transaction": {
        "from": "0x4ff9193756e090795742756e043edebf50eeaa47",
        "to": "0xed08ee493161fb3ea1fb8935271ed6e85fdd8c0c",
        "gas": "0x32338",
        "value": "0x0",
        "input": "0x473fa339000000000000000000000000000000000000000000000000000000000000006000000000000000000000000000000000000000000000000000000000000000a000000000000000000000000000000000000000000000000000000000000000e00000000000000000000000000000000000000000000000000000000000000013476f6c64656e205468796d6520436f6666656500000000000000000000000000000000000000000000000000000000000000000000000000000000000000000b436f666665652053686f70000000000000000000000000000000000000000000000000000000000000000000000000000000000000000000000000000000000e5361696e74205061756c2c204d4e000000000000000000000000000000000000",
        "nonce": "0x148",
        "chainId": "0xaa36a7"
      },
      "additionalContracts": [],
      "isFixedGasLimit": false
    },
    {
      "hash": "0x5c09eb6785711717ad5d7b8efaa1164e63a035cff7440490419067813c5d4e55",
      "transactionType": "CALL",
      "contractName": "ReviewRegistry",
      "contractAddress": "0xed08ee493161fb3ea1fb8935271ed6e85fdd8c0c",
      "function": "addBusiness(string,string,string)",
      "arguments": [
        "Hmongtown Marketplace",
        "Market",
        "Saint Paul, MN"
      ],
      "transaction": {
        "from": "0x4ff9193756e090795742756e043edebf50eeaa47",
        "to": "0xed08ee493161fb3ea1fb8935271ed6e85fdd8c0c",
        "gas": "0x35244",
        "value": "0x0",
        "input": "0x473fa339000000000000000000000000000000000000000000000000000000000000006000000000000000000000000000000000000000000000000000000000000000a000000000000000000000000000000000000000000000000000000000000000e00000000000000000000000000000000000000000000000000000000000000015486d6f6e67746f776e204d61726b6574706c616365000000000000000000000000000000000000000000000000000000000000000000000000000000000000064d61726b65740000000000000000000000000000000000000000000000000000000000000000000000000000000000000000000000000000000000000000000e5361696e74205061756c2c204d4e000000000000000000000000000000000000",
        "nonce": "0x149",
        "chainId": "0xaa36a7"
      },
      "additionalContracts": [],
      "isFixedGasLimit": false
    },
    {
      "hash": "0xeb91a00cd972accca0af8ce58a677cb158a12f08842b4ca07ba7770d52d81343",
      "transactionType": "CALL",
      "contractName": "ReviewRegistry",
      "contractAddress": "0xed08ee493161fb3ea1fb8935271ed6e85fdd8c0c",
      "function": "addBusiness(string,string,string)",
      "arguments": [
        "Can Can Wonderland",
        "Entertainment",
        "Saint Paul, MN"
      ],
      "transaction": {
        "from": "0x4ff9193756e090795742756e043edebf50eeaa47",
        "to": "0xed08ee493161fb3ea1fb8935271ed6e85fdd8c0c",
        "gas": "0x3528a",
        "value": "0x0",
        "input": "0x473fa339000000000000000000000000000000000000000000000000000000000000006000000000000000000000000000000000000000000000000000000000000000a000000000000000000000000000000000000000000000000000000000000000e0000000000000000000000000000000000000000000000000000000000000001243616e2043616e20576f6e6465726c616e640000000000000000000000000000000000000000000000000000000000000000000000000000000000000000000d456e7465727461696e6d656e7400000000000000000000000000000000000000000000000000000000000000000000000000000000000000000000000000000e5361696e74205061756c2c204d4e000000000000000000000000000000000000",
        "nonce": "0x14a",
        "chainId": "0xaa36a7"
      },
      "additionalContracts": [],
      "isFixedGasLimit": false
    },
    {
      "hash": "0x7219427c8526df624cbba292e43f40de1cf581b72f8518a8ce0ae88807d710c6",
      "transactionType": "CALL",
      "contractName": "ReviewRegistry",
      "contractAddress": "0xed08ee493161fb3ea1fb8935271ed6e85fdd8c0c",
      "function": "addBusiness(string,string,string)",
      "arguments": [
        "Keg and Case Market",
        "Food Hall",
        "Saint Paul, MN"
      ],
      "transaction": {
        "from": "0x4ff9193756e090795742756e043edebf50eeaa47",
        "to": "0xed08ee493161fb3ea1fb8935271ed6e85fdd8c0c",
        "gas": "0x32317",
        "value": "0x0",
        "input": "0x473fa339000000000000000000000000000000000000000000000000000000000000006000000000000000000000000000000000000000000000000000000000000000a000000000000000000000000000000000000000000000000000000000000000e000000000000000000000000000000000000000000000000000000000000000134b656720616e642043617365204d61726b6574000000000000000000000000000000000000000000000000000000000000000000000000000000000000000009466f6f642048616c6c0000000000000000000000000000000000000000000000000000000000000000000000000000000000000000000000000000000000000e5361696e74205061756c2c204d4e000000000000000000000000000000000000",
        "nonce": "0x14b",
        "chainId": "0xaa36a7"
      },
      "additionalContracts": [],
      "isFixedGasLimit": false
    },
    {
      "hash": "0x014ea904278ab40b0019949a75665cffe2d7419e5526334f5f06977102a4e6fe",
      "transactionType": "CALL",
      "contractName": "ReviewRegistry",
      "contractAddress": "0xed08ee493161fb3ea1fb8935271ed6e85fdd8c0c",
      "function": "addBusiness(string,string,string)",
      "arguments": [
        "Summit Brewing Company",
        "Brewery",
        "Saint Paul, MN"
      ],
      "transaction": {
        "from": "0x4ff9193756e090795742756e043edebf50eeaa47",
        "to": "0xed08ee493161fb3ea1fb8935271ed6e85fdd8c0c",
        "gas": "0x35267",
        "value": "0x0",
        "input": "0x473fa339000000000000000000000000000000000000000000000000000000000000006000000000000000000000000000000000000000000000000000000000000000a000000000000000000000000000000000000000000000000000000000000000e0000000000000000000000000000000000000000000000000000000000000001653756d6d69742042726577696e6720436f6d70616e790000000000000000000000000000000000000000000000000000000000000000000000000000000000074272657765727900000000000000000000000000000000000000000000000000000000000000000000000000000000000000000000000000000000000000000e5361696e74205061756c2c204d4e000000000000000000000000000000000000",
        "nonce": "0x14c",
        "chainId": "0xaa36a7"
      },
      "additionalContracts": [],
      "isFixedGasLimit": false
    },
    {
      "hash": "0xf6067b3d938d2c855c6d388e0f5541dad8fc0b46343d90b9edc3922bee2afb8a",
      "transactionType": "CALL",
      "contractName": "ReviewRegistry",
      "contractAddress": "0xed08ee493161fb3ea1fb8935271ed6e85fdd8c0c",
      "function": "addBusiness(string,string,string)",
      "arguments": [
        "Ox Cart Ale House",
        "Bar",
        "Saint Paul, MN"
      ],
      "transaction": {
        "from": "0x4ff9193756e090795742756e043edebf50eeaa47",
        "to": "0xed08ee493161fb3ea1fb8935271ed6e85fdd8c0c",
        "gas": "0x32292",
        "value": "0x0",
        "input": "0x473fa339000000000000000000000000000000000000000000000000000000000000006000000000000000000000000000000000000000000000000000000000000000a000000000000000000000000000000000000000000000000000000000000000e000000000000000000000000000000000000000000000000000000000000000114f78204361727420416c6520486f75736500000000000000000000000000000000000000000000000000000000000000000000000000000000000000000000034261720000000000000000000000000000000000000000000000000000000000000000000000000000000000000000000000000000000000000000000000000e5361696e74205061756c2c204d4e000000000000000000000000000000000000",
        "nonce": "0x14d",
        "chainId": "0xaa36a7"
      },
      "additionalContracts": [],
      "isFixedGasLimit": false
    },
    {
      "hash": "0x19a4ce911490ca62f5f7d8cdeaf46000d51cf9fd7fe937c31c9b6df5246ce1e8",
      "transactionType": "CALL",
      "contractName": "ReviewRegistry",
      "contractAddress": "0xed08ee493161fb3ea1fb8935271ed6e85fdd8c0c",
      "function": "addBusiness(string,string,string)",
      "arguments": [
        "Tongue in Cheek",
        "Restaurant",
        "Saint Paul, MN"
      ],
      "transaction": {
        "from": "0x4ff9193756e090795742756e043edebf50eeaa47",
        "to": "0xed08ee493161fb3ea1fb8935271ed6e85fdd8c0c",
        "gas": "0x35221",
        "value": "0x0",
        "input": "0x473fa339000000000000000000000000000000000000000000000000000000000000006000000000000000000000000000000000000000000000000000000000000000a000000000000000000000000000000000000000000000000000000000000000e0000000000000000000000000000000000000000000000000000000000000000f546f6e67756520696e20436865656b0000000000000000000000000000000000000000000000000000000000000000000000000000000000000000000000000a52657374617572616e7400000000000000000000000000000000000000000000000000000000000000000000000000000000000000000000000000000000000e5361696e74205061756c2c204d4e000000000000000000000000000000000000",
        "nonce": "0x14e",
        "chainId": "0xaa36a7"
      },
      "additionalContracts": [],
      "isFixedGasLimit": false
    }
  ],
  "receipts": [
    {
      "status": "0x1",
      "cumulativeGasUsed": "0x1647c2b",
      "logs": [
        {
          "address": "0xdf76bdf11812e93f31bdf6363fe3cd1fe4078a52",
          "topics": [
            "0x8be0079c531659141344cd1fd0a4f28419497f9722a3daafe3b4186f6b6457e0",
            "0x0000000000000000000000000000000000000000000000000000000000000000",
            "0x0000000000000000000000004ff9193756e090795742756e043edebf50eeaa47"
          ],
          "data": "0x",
          "blockHash": "0xd8bbfb67fbf6febbeeff598b8f87bf1a029e4066e5e8c59cf01142ce4f626591",
          "blockNumber": "0xa0c0ee",
          "blockTimestamp": "0x69c6f234",
          "transactionHash": "0xe86c732e2c64230823b4558722f675a46c59726e826bb838d17d9e5ec22779bc",
          "transactionIndex": "0x5b",
          "logIndex": "0x1c6",
          "removed": false
        }
      ],
      "logsBloom": "0x00000000000000000000000000000000000000000000000000800000000000000000000200000000000000000000000000000000000000000000000000000000000000000000000000000100000000000001000000000000000000000000000000000000020000000000000000000800000000000000000000800000000000400000000000000000000000000000000000020000000000000000000000000000000000000000000000000000000000000000000000000000000000000000000000000000000000000000000000000000000000000000000000000000000020000000000000000000000000000000000002000000000000000000000000000400",
      "type": "0x2",
      "transactionHash": "0xe86c732e2c64230823b4558722f675a46c59726e826bb838d17d9e5ec22779bc",
      "transactionIndex": "0x5b",
      "blockHash": "0xd8bbfb67fbf6febbeeff598b8f87bf1a029e4066e5e8c59cf01142ce4f626591",
      "blockNumber": "0xa0c0ee",
      "gasUsed": "0x153ff7",
      "effectiveGasPrice": "0xf425c",
      "from": "0x4ff9193756e090795742756e043edebf50eeaa47",
      "to": null,
      "contractAddress": "0xdf76bdf11812e93f31bdf6363fe3cd1fe4078a52"
    },
    {
      "status": "0x1",
      "cumulativeGasUsed": "0x1766fbe",
      "logs": [
        {
          "address": "0xacd596f9546a32469e4d7120593e7b54e119351b",
          "topics": [
            "0x8be0079c531659141344cd1fd0a4f28419497f9722a3daafe3b4186f6b6457e0",
            "0x0000000000000000000000000000000000000000000000000000000000000000",
            "0x0000000000000000000000004ff9193756e090795742756e043edebf50eeaa47"
          ],
          "data": "0x",
          "blockHash": "0xd8bbfb67fbf6febbeeff598b8f87bf1a029e4066e5e8c59cf01142ce4f626591",
          "blockNumber": "0xa0c0ee",
          "blockTimestamp": "0x69c6f234",
          "transactionHash": "0x7eeafd2a35e01c4e566ccf5c2d613c933fc3385a5a5692eddd4feb87b3c5cd0a",
          "transactionIndex": "0x5c",
          "logIndex": "0x1c7",
          "removed": false
        }
      ],
      "logsBloom": "0x00000000000800000000000000000000000000000000000000800000000000000000000000000000000000000000000000000000000000000000000000000000000000000000000000000120000000000001000000000000000000000000000000000000020000000000000000000800000000000000000000800000000000400000000000000000000000000000000000000000000000000000000000000000000000000000000000000000000000000000000000000000000000000000000000000000000000000000000000000000000000000000000000000000000020000000000000000000010000000000000002000000000000000000000000000000",
      "type": "0x2",
      "transactionHash": "0x7eeafd2a35e01c4e566ccf5c2d613c933fc3385a5a5692eddd4feb87b3c5cd0a",
      "transactionIndex": "0x5c",
      "blockHash": "0xd8bbfb67fbf6febbeeff598b8f87bf1a029e4066e5e8c59cf01142ce4f626591",
      "blockNumber": "0xa0c0ee",
      "gasUsed": "0x11f393",
      "effectiveGasPrice": "0xf425c",
      "from": "0x4ff9193756e090795742756e043edebf50eeaa47",
      "to": null,
      "contractAddress": "0xacd596f9546a32469e4d7120593e7b54e119351b"
    },
    {
      "status": "0x1",
      "cumulativeGasUsed": "0x19704aa",
      "logs": [
        {
          "address": "0xed08ee493161fb3ea1fb8935271ed6e85fdd8c0c",
          "topics": [
            "0x8be0079c531659141344cd1fd0a4f28419497f9722a3daafe3b4186f6b6457e0",
            "0x0000000000000000000000000000000000000000000000000000000000000000",
            "0x0000000000000000000000004ff9193756e090795742756e043edebf50eeaa47"
          ],
          "data": "0x",
          "blockHash": "0xd8bbfb67fbf6febbeeff598b8f87bf1a029e4066e5e8c59cf01142ce4f626591",
          "blockNumber": "0xa0c0ee",
          "blockTimestamp": "0x69c6f234",
          "transactionHash": "0x48b0178c30ab759b2b5770e29f177d35f48b4ea8906e36c525a605f4c47db5de",
          "transactionIndex": "0x5d",
          "logIndex": "0x1c8",
          "removed": false
        }
      ],
      "logsBloom": "0x00000000000000000000000000008000000080000000000000800000000000000000000000000000000000000000000000000000000000000000000000000000000000000000000000000100000000000001000000000000000000000000000000000000020000000000000000000800000000000000000000800000000000400000000000000000000000000000000000000000000000000000000000000000000000000000000000000000000000000000000000000000000000000000000000000000000000000000000000001000000000000000000000000000000020000000000000000000000000000000000002000000000000000000000000000000",
      "type": "0x2",
      "transactionHash": "0x48b0178c30ab759b2b5770e29f177d35f48b4ea8906e36c525a605f4c47db5de",
      "transactionIndex": "0x5d",
      "blockHash": "0xd8bbfb67fbf6febbeeff598b8f87bf1a029e4066e5e8c59cf01142ce4f626591",
      "blockNumber": "0xa0c0ee",
      "gasUsed": "0x2094ec",
      "effectiveGasPrice": "0xf425c",
      "from": "0x4ff9193756e090795742756e043edebf50eeaa47",
      "to": null,
      "contractAddress": "0xed08ee493161fb3ea1fb8935271ed6e85fdd8c0c"
    },
    {
      "status": "0x1",
      "cumulativeGasUsed": "0x197c0ba",
      "logs": [
        {
          "address": "0xdf76bdf11812e93f31bdf6363fe3cd1fe4078a52",
          "topics": [
            "0xf2ce85500052e4bce5775e8ae4c693f7306abf01169eb3a48860dce05cb91c31",
            "0x0000000000000000000000000000000000000000000000000000000000000000",
            "0x000000000000000000000000acd596f9546a32469e4d7120593e7b54e119351b"
          ],
          "data": "0x",
          "blockHash": "0xd8bbfb67fbf6febbeeff598b8f87bf1a029e4066e5e8c59cf01142ce4f626591",
          "blockNumber": "0xa0c0ee",
          "blockTimestamp": "0x69c6f234",
          "transactionHash": "0xeb91a00cd972accca0af8ce58a677cb158a12f08842b4ca07ba7770d52d81343",
          "transactionIndex": "0x5e",
          "logIndex": "0x1c9",
          "removed": false
        }
      ],
      "logsBloom": "0x00000000000000000000000000000000000000000000000000000000000000000000000200000000000000000000000008000000000000000000000080000000000000000000000000000000000000000000000000000000000000000000000000000000020000000000000000000a00001000000000000000000000000000000000000000000200000000000000000000020000000000000000000000000000000000000000000000000000000000000000000000000000000000000000000000000000000000000000000000000000000000000000000000000000000020000010000000000000000000000000000000000000000000000000000000000400",
      "type": "0x2",
      "transactionHash": "0xeb91a00cd972accca0af8ce58a677cb158a12f08842b4ca07ba7770d52d81343",
      "transactionIndex": "0x5e",
      "blockHash": "0xd8bbfb67fbf6febbeeff598b8f87bf1a029e4066e5e8c59cf01142ce4f626591",
      "blockNumber": "0xa0c0ee",
      "gasUsed": "0xbc10",
      "effectiveGasPrice": "0xf425c",
      "from": "0x4ff9193756e090795742756e043edebf50eeaa47",
      "to": "0xdf76bdf11812e93f31bdf6363fe3cd1fe4078a52",
      "contractAddress": null
    },
    {
      "status": "0x1",
      "cumulativeGasUsed": "0x1987c72",
      "logs": [
        {
          "address": "0xacd596f9546a32469e4d7120593e7b54e119351b",
          "topics": [
            "0x41ad368761e18cdc3c388f2eac1602c0e34804556d0948dd50ff4a3aa1da00ab",
            "0x0000000000000000000000000000000000000000000000000000000000000000",
            "0x000000000000000000000000df76bdf11812e93f31bdf6363fe3cd1fe4078a52"
          ],
          "data": "0x",
          "blockHash": "0xd8bbfb67fbf6febbeeff598b8f87bf1a029e4066e5e8c59cf01142ce4f626591",
          "blockNumber": "0xa0c0ee",
          "blockTimestamp": "0x69c6f234",
          "transactionHash": "0xf682f020a131950adab4f698726a86f6cb931c67f1c900ee78e402854a7c29ac",
          "transactionIndex": "0x5f",
          "logIndex": "0x1ca",
          "removed": false
        }
      ],
      "logsBloom": "0x00000000000800000000000000000000000000000000000000000000000000000000000000000000000000000000000000000000000000000400000000000000000000000000000000000020000000000000000000000000000000000000000000000000020000000000000000000800000000000000000000000000000000000000000000000000000000000000000000000000000000000000000000000000000000200000020000000000000000000000000000000000000000000800000000000000000000000000000000000000000000000000000000000000020020000000000000000000010000004000000000000000000000000000000000000000",
      "type": "0x2",
      "transactionHash": "0xf682f020a131950adab4f698726a86f6cb931c67f1c900ee78e402854a7c29ac",
      "transactionIndex": "0x5f",
      "blockHash": "0xd8bbfb67fbf6febbeeff598b8f87bf1a029e4066e5e8c59cf01142ce4f626591",
      "blockNumber": "0xa0c0ee",
      "gasUsed": "0xbbb8",
      "effectiveGasPrice": "0xf425c",
      "from": "0x4ff9193756e090795742756e043edebf50eeaa47",
      "to": "0xacd596f9546a32469e4d7120593e7b54e119351b",
      "contractAddress": null
    },
    {
      "status": "0x1",
      "cumulativeGasUsed": "0x199382b",
      "logs": [
        {
          "address": "0xacd596f9546a32469e4d7120593e7b54e119351b",
          "topics": [
            "0xd10db78e710f894d2a83aa1482aeb1c909eeb34b7f140182454f68607e1b4b87",
            "0x0000000000000000000000000000000000000000000000000000000000000000",
            "0x000000000000000000000000ed08ee493161fb3ea1fb8935271ed6e85fdd8c0c"
          ],
          "data": "0x",
          "blockHash": "0xd8bbfb67fbf6febbeeff598b8f87bf1a029e4066e5e8c59cf01142ce4f626591",
          "blockNumber": "0xa0c0ee",
          "blockTimestamp": "0x69c6f234",
          "transactionHash": "0xa684f990078212792ca60180605f6b4adb1462694d258747c5255490ff639064",
          "transactionIndex": "0x60",
          "logIndex": "0x1cb",
          "removed": false
        }
      ],
      "logsBloom": "0x00000000000800000000000000000000000000000000000000000000000000000000000000000000000000000000000000000000000000000000000000000000000000000000000000000020000000000000000000000000000000000000000000400000020000000000000000000a00020000000000000000000000000000000000000000000000000000000000000000000000000000000000000000000000000000000000000000000000000000000000000000100000000000000000000000000000000000000000000000000200000000000000000000000000000020000000000000000000010000000000000000000000000000000000000000000100",
      "type": "0x2",
      "transactionHash": "0xa684f990078212792ca60180605f6b4adb1462694d258747c5255490ff639064",
      "transactionIndex": "0x60",
      "blockHash": "0xd8bbfb67fbf6febbeeff598b8f87bf1a029e4066e5e8c59cf01142ce4f626591",
      "blockNumber": "0xa0c0ee",
      "gasUsed": "0xbbb9",
      "effectiveGasPrice": "0xf425c",
      "from": "0x4ff9193756e090795742756e043edebf50eeaa47",
      "to": "0xacd596f9546a32469e4d7120593e7b54e119351b",
      "contractAddress": null
    },
    {
      "status": "0x1",
      "cumulativeGasUsed": "0x199f43b",
      "logs": [
        {
          "address": "0xed08ee493161fb3ea1fb8935271ed6e85fdd8c0c",
          "topics": [
            "0xf2ce85500052e4bce5775e8ae4c693f7306abf01169eb3a48860dce05cb91c31",
            "0x0000000000000000000000000000000000000000000000000000000000000000",
            "0x000000000000000000000000acd596f9546a32469e4d7120593e7b54e119351b"
          ],
          "data": "0x",
          "blockHash": "0xd8bbfb67fbf6febbeeff598b8f87bf1a029e4066e5e8c59cf01142ce4f626591",
          "blockNumber": "0xa0c0ee",
          "blockTimestamp": "0x69c6f234",
          "transactionHash": "0xfd6973c16281195fd0a3d181d2ad91df599aaeb883e861a4bb7707724f126861",
          "transactionIndex": "0x61",
          "logIndex": "0x1cc",
          "removed": false
        }
      ],
      "logsBloom": "0x00000000000000000000000000008000000080000000000000000000000000000000000000000000000000000000000008000000000000000000000080000000000000000000000000000000000000000000000000000000000000000000000000000000020000000000000000000a00001000000000000000000000000000000000000000000200000000000000000000000000000000000000000000000000000000000000000000000000000000000000000000000000000000000000000000000000000000000000000000001000000000000000000000000000000020000010000000000000000000000000000000000000000000000000000000000000",
      "type": "0x2",
      "transactionHash": "0xfd6973c16281195fd0a3d181d2ad91df599aaeb883e861a4bb7707724f126861",
      "transactionIndex": "0x61",
      "blockHash": "0xd8bbfb67fbf6febbeeff598b8f87bf1a029e4066e5e8c59cf01142ce4f626591",
      "blockNumber": "0xa0c0ee",
      "gasUsed": "0xbc10",
      "effectiveGasPrice": "0xf425c",
      "from": "0x4ff9193756e090795742756e043edebf50eeaa47",
      "to": "0xed08ee493161fb3ea1fb8935271ed6e85fdd8c0c",
      "contractAddress": null
    },
    {
      "status": "0x1",
      "cumulativeGasUsed": "0x19c2eac",
      "logs": [
        {
          "address": "0xed08ee493161fb3ea1fb8935271ed6e85fdd8c0c",
          "topics": [
            "0x3df1ef423accc9fa5ddf0ee8cf9791e181626a48a8c8b20fc001e83580401960",
            "0x0000000000000000000000000000000000000000000000000000000000000000"
          ],
          "data": "0x000000000000000000000000000000000000000000000000000000000000006000000000000000000000000000000000000000000000000000000000000000a000000000000000000000000000000000000000000000000000000000000000e00000000000000000000000000000000000000000000000000000000000000009436f73657474612773000000000000000000000000000000000000000000000000000000000000000000000000000000000000000000000000000000000000124974616c69616e2052657374617572616e740000000000000000000000000000000000000000000000000000000000000000000000000000000000000000000e5361696e74205061756c2c204d4e000000000000000000000000000000000000",
          "blockHash": "0xd8bbfb67fbf6febbeeff598b8f87bf1a029e4066e5e8c59cf01142ce4f626591",
          "blockNumber": "0xa0c0ee",
          "blockTimestamp": "0x69c6f234",
          "transactionHash": "0xcdd7227e7c07edf81e1740369ea8223ae148ffe52c3efba6e69a96fa9a8745fd",
          "transactionIndex": "0x62",
          "logIndex": "0x1cd",
          "removed": false
        }
      ],
      "logsBloom": "0x00000000000000000000000000008000000080000000000000000000000000000000000000000000000000000000000000000000000000004000000000000000000000000000000000000000000000000000000000000000000000000000000000000000020000000000000000000800000000000000000000000000000000000000000000000000000000000000000002000000000000000000000000000000000000000000000000000000000000000000000000000000000000000000000000000000000000000000000000001000080000000000000000000000000020000000000000000000000000000000000000000000000000000000000000000000",
      "type": "0x2",
      "transactionHash": "0xcdd7227e7c07edf81e1740369ea8223ae148ffe52c3efba6e69a96fa9a8745fd",
      "transactionIndex": "0x62",
      "blockHash": "0xd8bbfb67fbf6febbeeff598b8f87bf1a029e4066e5e8c59cf01142ce4f626591",
      "blockNumber": "0xa0c0ee",
      "gasUsed": "0x23a71",
      "effectiveGasPrice": "0xf425c",
      "from": "0x4ff9193756e090795742756e043edebf50eeaa47",
      "to": "0xed08ee493161fb3ea1fb8935271ed6e85fdd8c0c",
      "contractAddress": null
    },
    {
      "status": "0x1",
      "cumulativeGasUsed": "0x19e7401",
      "logs": [
        {
          "address": "0xed08ee493161fb3ea1fb8935271ed6e85fdd8c0c",
          "topics": [
            "0x3df1ef423accc9fa5ddf0ee8cf9791e181626a48a8c8b20fc001e83580401960",
            "0x0000000000000000000000000000000000000000000000000000000000000001"
          ],
          "data": "0x000000000000000000000000000000000000000000000000000000000000006000000000000000000000000000000000000000000000000000000000000000a000000000000000000000000000000000000000000000000000000000000000e000000000000000000000000000000000000000000000000000000000000000075265766976616c000000000000000000000000000000000000000000000000000000000000000000000000000000000000000000000000000000000000000013536f75746865726e2052657374617572616e7400000000000000000000000000000000000000000000000000000000000000000000000000000000000000000e5361696e74205061756c2c204d4e000000000000000000000000000000000000",
          "blockHash": "0xd8bbfb67fbf6febbeeff598b8f87bf1a029e4066e5e8c59cf01142ce4f626591",
          "blockNumber": "0xa0c0ee",
          "blockTimestamp": "0x69c6f234",
          "transactionHash": "0x19a4ce911490ca62f5f7d8cdeaf46000d51cf9fd7fe937c31c9b6df5246ce1e8",
          "transactionIndex": "0x63",
          "logIndex": "0x1ce",
          "removed": false
        }
      ],
      "logsBloom": "0x00000000000000000000000000008000000080000000000000000000000000000000000000000000000000000000000000000000000000004000000000040000000000000000000000000000000000000000000000040000000000000000000000000000000000000000000000000000000000000000000000000000000000000000000000000000000000000000000002000000000000000000000000000000000000000000000000000000000000000000000000000000000000000000000000000000000000000000000000001000080000000000000000000000000040000000000000000000000000000000000000000000000000000000000000000000",
      "type": "0x2",
      "transactionHash": "0x19a4ce911490ca62f5f7d8cdeaf46000d51cf9fd7fe937c31c9b6df5246ce1e8",
      "transactionIndex": "0x63",
      "blockHash": "0xd8bbfb67fbf6febbeeff598b8f87bf1a029e4066e5e8c59cf01142ce4f626591",
      "blockNumber": "0xa0c0ee",
      "gasUsed": "0x24555",
      "effectiveGasPrice": "0xf425c",
      "from": "0x4ff9193756e090795742756e043edebf50eeaa47",
      "to": "0xed08ee493161fb3ea1fb8935271ed6e85fdd8c0c",
      "contractAddress": null
    },
    {
      "status": "0x1",
      "cumulativeGasUsed": "0x1a0b93e",
      "logs": [
        {
          "address": "0xed08ee493161fb3ea1fb8935271ed6e85fdd8c0c",
          "topics": [
            "0x3df1ef423accc9fa5ddf0ee8cf9791e181626a48a8c8b20fc001e83580401960",
            "0x0000000000000000000000000000000000000000000000000000000000000002"
          ],
          "data": "0x000000000000000000000000000000000000000000000000000000000000006000000000000000000000000000000000000000000000000000000000000000a000000000000000000000000000000000000000000000000000000000000000e0000000000000000000000000000000000000000000000000000000000000000d4272756e736f6e27732050756200000000000000000000000000000000000000000000000000000000000000000000000000000000000000000000000000000b4261722026204772696c6c000000000000000000000000000000000000000000000000000000000000000000000000000000000000000000000000000000000e5361696e74205061756c2c204d4e000000000000000000000000000000000000",
          "blockHash": "0xd8bbfb67fbf6febbeeff598b8f87bf1a029e4066e5e8c59cf01142ce4f626591",
          "blockNumber": "0xa0c0ee",
          "blockTimestamp": "0x69c6f234",
          "transactionHash": "0x54119142431f98566d17bb1789d5b0ee97d7f64d8c4194517d209fbc1457f29e",
          "transactionIndex": "0x64",
          "logIndex": "0x1cf",
          "removed": false
        }
      ],
      "logsBloom": "0x04000000000000000000000000008000000080000000000000000000000000000000000000000000000000000000000000000000000000004000000000000000000000000000000000000000000000000000000000000000000000000000000000000000000000000000000000000000000000000000000000000000000000000000000000000000000000000000000002000000000000000000000000000000000000000000000000000100000000000000000000000000000000000000000000000000000000000000000000001000080000000000000000000000000000000000000000000000000000000000000000000000008000000000000000000000",
      "type": "0x2",
      "transactionHash": "0x54119142431f98566d17bb1789d5b0ee97d7f64d8c4194517d209fbc1457f29e",
      "transactionIndex": "0x64",
      "blockHash": "0xd8bbfb67fbf6febbeeff598b8f87bf1a029e4066e5e8c59cf01142ce4f626591",
      "blockNumber": "0xa0c0ee",
      "gasUsed": "0x2453d",
      "effectiveGasPrice": "0xf425c",
      "from": "0x4ff9193756e090795742756e043edebf50eeaa47",
      "to": "0xed08ee493161fb3ea1fb8935271ed6e85fdd8c0c",
      "contractAddress": null
    },
    {
      "status": "0x1",
      "cumulativeGasUsed": "0x1a2fec3",
      "logs": [
        {
          "address": "0xed08ee493161fb3ea1fb8935271ed6e85fdd8c0c",
          "topics": [
            "0x3df1ef423accc9fa5ddf0ee8cf9791e181626a48a8c8b20fc001e83580401960",
            "0x0000000000000000000000000000000000000000000000000000000000000003"
          ],
          "data": "0x000000000000000000000000000000000000000000000000000000000000006000000000000000000000000000000000000000000000000000000000000000a000000000000000000000000000000000000000000000000000000000000000e00000000000000000000000000000000000000000000000000000000000000013476f6c64656e205468796d6520436f6666656500000000000000000000000000000000000000000000000000000000000000000000000000000000000000000b436f666665652053686f70000000000000000000000000000000000000000000000000000000000000000000000000000000000000000000000000000000000e5361696e74205061756c2c204d4e000000000000000000000000000000000000",
          "blockHash": "0xd8bbfb67fbf6febbeeff598b8f87bf1a029e4066e5e8c59cf01142ce4f626591",
          "blockNumber": "0xa0c0ee",
          "blockTimestamp": "0x69c6f234",
          "transactionHash": "0x014ea904278ab40b0019949a75665cffe2d7419e5526334f5f06977102a4e6fe",
          "transactionIndex": "0x65",
          "logIndex": "0x1d0",
          "removed": false
        }
      ],
      "logsBloom": "0x00000000000000000000000000008000000080000000000000000000000000000000000000000000000000000000000000000000020000004000000000000000000000000000000000000000000000000000000000000000000000000000000000000000000000000000000000000000000000000000000000000000000000000000000000000000000000000000000002000000000000000000000000000000000000000000000000000000000000000000000000800000000000000000400000000000000000000000000000001000080000000000000000000000000000000000000000000000000000000000000000000000000000000000000000000000",
      "type": "0x2",
      "transactionHash": "0x014ea904278ab40b0019949a75665cffe2d7419e5526334f5f06977102a4e6fe",
      "transactionIndex": "0x65",
      "blockHash": "0xd8bbfb67fbf6febbeeff598b8f87bf1a029e4066e5e8c59cf01142ce4f626591",
      "blockNumber": "0xa0c0ee",
      "gasUsed": "0x24585",
      "effectiveGasPrice": "0xf425c",
      "from": "0x4ff9193756e090795742756e043edebf50eeaa47",
      "to": "0xed08ee493161fb3ea1fb8935271ed6e85fdd8c0c",
      "contractAddress": null
    },
    {
      "status": "0x1",
      "cumulativeGasUsed": "0x1a54424",
      "logs": [
        {
          "address": "0xed08ee493161fb3ea1fb8935271ed6e85fdd8c0c",
          "topics": [
            "0x3df1ef423accc9fa5ddf0ee8cf9791e181626a48a8c8b20fc001e83580401960",
            "0x0000000000000000000000000000000000000000000000000000000000000004"
          ],
          "data": "0x000000000000000000000000000000000000000000000000000000000000006000000000000000000000000000000000000000000000000000000000000000a000000000000000000000000000000000000000000000000000000000000000e00000000000000000000000000000000000000000000000000000000000000015486d6f6e67746f776e204d61726b6574706c616365000000000000000000000000000000000000000000000000000000000000000000000000000000000000064d61726b65740000000000000000000000000000000000000000000000000000000000000000000000000000000000000000000000000000000000000000000e5361696e74205061756c2c204d4e000000000000000000000000000000000000",
          "blockHash": "0xd8bbfb67fbf6febbeeff598b8f87bf1a029e4066e5e8c59cf01142ce4f626591",
          "blockNumber": "0xa0c0ee",
          "blockTimestamp": "0x69c6f234",
          "transactionHash": "0x4b9f251d89e7ad4254a558d204ed9200ab61424a6ce4cfbf41ec6ba8b25173e2",
          "transactionIndex": "0x66",
          "logIndex": "0x1d1",
          "removed": false
        }
      ],
      "logsBloom": "0x00000000000000000000000000008000000080000000000000000000000000000000000000000000000000000000000000000000000000004000000000000000000000000000000000000000000000000000000000000000000000000000000008000000000000000000000000000000000000000000000000000000000000000000000000000000000000000000000002000000000000000000000000000000000000000000000000000000000000000000000000000000002000000000000000000000000000000000000000001000080000008000000000000000000000000000000000000000000000000000000000000000000000000000000000000000",
      "type": "0x2",
      "transactionHash": "0x4b9f251d89e7ad4254a558d204ed9200ab61424a6ce4cfbf41ec6ba8b25173e2",
      "transactionIndex": "0x66",
      "blockHash": "0xd8bbfb67fbf6febbeeff598b8f87bf1a029e4066e5e8c59cf01142ce4f626591",
      "blockNumber": "0xa0c0ee",
      "gasUsed": "0x24561",
      "effectiveGasPrice": "0xf425c",
      "from": "0x4ff9193756e090795742756e043edebf50eeaa47",
      "to": "0xed08ee493161fb3ea1fb8935271ed6e85fdd8c0c",
      "contractAddress": null
    },
    {
      "status": "0x1",
      "cumulativeGasUsed": "0x1a789b5",
      "logs": [
        {
          "address": "0xed08ee493161fb3ea1fb8935271ed6e85fdd8c0c",
          "topics": [
            "0x3df1ef423accc9fa5ddf0ee8cf9791e181626a48a8c8b20fc001e83580401960",
            "0x0000000000000000000000000000000000000000000000000000000000000005"
          ],
          "data": "0x000000000000000000000000000000000000000000000000000000000000006000000000000000000000000000000000000000000000000000000000000000a000000000000000000000000000000000000000000000000000000000000000e0000000000000000000000000000000000000000000000000000000000000001243616e2043616e20576f6e6465726c616e640000000000000000000000000000000000000000000000000000000000000000000000000000000000000000000d456e7465727461696e6d656e7400000000000000000000000000000000000000000000000000000000000000000000000000000000000000000000000000000e5361696e74205061756c2c204d4e000000000000000000000000000000000000",
          "blockHash": "0xd8bbfb67fbf6febbeeff598b8f87bf1a029e4066e5e8c59cf01142ce4f626591",
          "blockNumber": "0xa0c0ee",
          "blockTimestamp": "0x69c6f234",
          "transactionHash": "0x1df9bfc2a1cf97a9a87fba6e18097d71dc1160839ea21c9dbc905995637a1d7f",
          "transactionIndex": "0x67",
          "logIndex": "0x1d2",
          "removed": false
        }
      ],
      "logsBloom": "0x00000000000000000000000000008000000080000000000000000000000000000000000000000000000000000000000000000000000000004000000000000000000010000000000000000000000000000000000000000000000000000000000000000000000000000000000000000000000000000000000000000000000000000000000000000000000000000000001002000800000000000000000000000000000000000000000000000000000000000000000000000000000000000000000000000000000000000000000000001000080000000000000000000000000000000000000000000000000000000000000000000000000000000000000000000000",
      "type": "0x2",
      "transactionHash": "0x1df9bfc2a1cf97a9a87fba6e18097d71dc1160839ea21c9dbc905995637a1d7f",
      "transactionIndex": "0x67",
      "blockHash": "0xd8bbfb67fbf6febbeeff598b8f87bf1a029e4066e5e8c59cf01142ce4f626591",
      "blockNumber": "0xa0c0ee",
      "gasUsed": "0x24591",
      "effectiveGasPrice": "0xf425c",
      "from": "0x4ff9193756e090795742756e043edebf50eeaa47",
      "to": "0xed08ee493161fb3ea1fb8935271ed6e85fdd8c0c",
      "contractAddress": null
    },
    {
      "status": "0x1",
      "cumulativeGasUsed": "0x1a9cf22",
      "logs": [
        {
          "address": "0xed08ee493161fb3ea1fb8935271ed6e85fdd8c0c",
          "topics": [
            "0x3df1ef423accc9fa5ddf0ee8cf9791e181626a48a8c8b20fc001e83580401960",
            "0x0000000000000000000000000000000000000000000000000000000000000006"
          ],
          "data": "0x000000000000000000000000000000000000000000000000000000000000006000000000000000000000000000000000000000000000000000000000000000a000000000000000000000000000000000000000000000000000000000000000e000000000000000000000000000000000000000000000000000000000000000134b656720616e642043617365204d61726b6574000000000000000000000000000000000000000000000000000000000000000000000000000000000000000009466f6f642048616c6c0000000000000000000000000000000000000000000000000000000000000000000000000000000000000000000000000000000000000e5361696e74205061756c2c204d4e000000000000000000000000000000000000",
          "blockHash": "0xd8bbfb67fbf6febbeeff598b8f87bf1a029e4066e5e8c59cf01142ce4f626591",
          "blockNumber": "0xa0c0ee",
          "blockTimestamp": "0x69c6f234",
          "transactionHash": "0xf6067b3d938d2c855c6d388e0f5541dad8fc0b46343d90b9edc3922bee2afb8a",
          "transactionIndex": "0x68",
          "logIndex": "0x1d3",
          "removed": false
        }
      ],
      "logsBloom": "0x00000000000000000000000000008000000080000000000000000000000000000000000000000000000000000000000000000000000400004000000000000000000000000000000000000000000000000000000000000000000000000000000000000000000000000000000000000000000000000000000000000000000000000000000400000000000000000000000002000000000000000000000000000000000000000000000000000000000000000000000000000000000000080000000000000000000000000000000000001000080000000000000000000000000000000000000000000000000000000000000000000000000000000000000000000000",
      "type": "0x2",
      "transactionHash": "0xf6067b3d938d2c855c6d388e0f5541dad8fc0b46343d90b9edc3922bee2afb8a",
      "transactionIndex": "0x68",
      "blockHash": "0xd8bbfb67fbf6febbeeff598b8f87bf1a029e4066e5e8c59cf01142ce4f626591",
      "blockNumber": "0xa0c0ee",
      "gasUsed": "0x2456d",
      "effectiveGasPrice": "0xf425c",
      "from": "0x4ff9193756e090795742756e043edebf50eeaa47",
      "to": "0xed08ee493161fb3ea1fb8935271ed6e85fdd8c0c",
      "contractAddress": null
    },
    {
      "status": "0x1",
      "cumulativeGasUsed": "0x1ac149b",
      "logs": [
        {
          "address": "0xed08ee493161fb3ea1fb8935271ed6e85fdd8c0c",
          "topics": [
            "0x3df1ef423accc9fa5ddf0ee8cf9791e181626a48a8c8b20fc001e83580401960",
            "0x0000000000000000000000000000000000000000000000000000000000000007"
          ],
          "data": "0x000000000000000000000000000000000000000000000000000000000000006000000000000000000000000000000000000000000000000000000000000000a000000000000000000000000000000000000000000000000000000000000000e0000000000000000000000000000000000000000000000000000000000000001653756d6d69742042726577696e6720436f6d70616e790000000000000000000000000000000000000000000000000000000000000000000000000000000000074272657765727900000000000000000000000000000000000000000000000000000000000000000000000000000000000000000000000000000000000000000e5361696e74205061756c2c204d4e000000000000000000000000000000000000",
          "blockHash": "0xd8bbfb67fbf6febbeeff598b8f87bf1a029e4066e5e8c59cf01142ce4f626591",
          "blockNumber": "0xa0c0ee",
          "blockTimestamp": "0x69c6f234",
          "transactionHash": "0x7219427c8526df624cbba292e43f40de1cf581b72f8518a8ce0ae88807d710c6",
          "transactionIndex": "0x69",
          "logIndex": "0x1d4",
          "removed": false
        }
      ],
      "logsBloom": "0x00000000000000000000000000008000000080000000000000000000000000000000000000000000000000000000000000001000000000004000000000000000000020000000000000000000000000000000000000000000000000000000000000000000000000000000000000000000000000000000000000000000000000000000000000000000000000000000000002000000000000000000000000000000000000000000000000000000000000000000000000000000000000000000000000000000000000000000000000001000080000000000000000000100000000000000000000000000000000000000000000000000000000000000000000000000",
      "type": "0x2",
      "transactionHash": "0x7219427c8526df624cbba292e43f40de1cf581b72f8518a8ce0ae88807d710c6",
      "transactionIndex": "0x69",
      "blockHash": "0xd8bbfb67fbf6febbeeff598b8f87bf1a029e4066e5e8c59cf01142ce4f626591",
      "blockNumber": "0xa0c0ee",
      "gasUsed": "0x24579",
      "effectiveGasPrice": "0xf425c",
      "from": "0x4ff9193756e090795742756e043edebf50eeaa47",
      "to": "0xed08ee493161fb3ea1fb8935271ed6e85fdd8c0c",
      "contractAddress": null
    },
    {
      "status": "0x1",
      "cumulativeGasUsed": "0x1ae59a8",
      "logs": [
        {
          "address": "0xed08ee493161fb3ea1fb8935271ed6e85fdd8c0c",
          "topics": [
            "0x3df1ef423accc9fa5ddf0ee8cf9791e181626a48a8c8b20fc001e83580401960",
            "0x0000000000000000000000000000000000000000000000000000000000000008"
          ],
          "data": "0x000000000000000000000000000000000000000000000000000000000000006000000000000000000000000000000000000000000000000000000000000000a000000000000000000000000000000000000000000000000000000000000000e000000000000000000000000000000000000000000000000000000000000000114f78204361727420416c6520486f75736500000000000000000000000000000000000000000000000000000000000000000000000000000000000000000000034261720000000000000000000000000000000000000000000000000000000000000000000000000000000000000000000000000000000000000000000000000e5361696e74205061756c2c204d4e000000000000000000000000000000000000",
          "blockHash": "0xd8bbfb67fbf6febbeeff598b8f87bf1a029e4066e5e8c59cf01142ce4f626591",
          "blockNumber": "0xa0c0ee",
          "blockTimestamp": "0x69c6f234",
          "transactionHash": "0x5c09eb6785711717ad5d7b8efaa1164e63a035cff7440490419067813c5d4e55",
          "transactionIndex": "0x6a",
          "logIndex": "0x1d5",
          "removed": false
        }
      ],
      "logsBloom": "0x00000000000000000000000000008000000080000000000000000000000000000000000000000000000000000000000000000000000080004000000000000000000000000000000000000000000000000000000000000000000000000000000000000000000000000000000000000000000000000000000000000000000000000080000000000000000000000000000002000000000000000000000000000000000000000000000000000000000000000000000000000000000000000000000040000000000000000000000000001000080000000000000000000000000000000000000000000000000000000000000000000000000000000000000000000000",
      "type": "0x2",
      "transactionHash": "0x5c09eb6785711717ad5d7b8efaa1164e63a035cff7440490419067813c5d4e55",
      "transactionIndex": "0x6a",
      "blockHash": "0xd8bbfb67fbf6febbeeff598b8f87bf1a029e4066e5e8c59cf01142ce4f626591",
      "blockNumber": "0xa0c0ee",
      "gasUsed": "0x2450d",
      "effectiveGasPrice": "0xf425c",
      "from": "0x4ff9193756e090795742756e043edebf50eeaa47",
      "to": "0xed08ee493161fb3ea1fb8935271ed6e85fdd8c0c",
      "contractAddress": null
    },
    {
      "status": "0x1",
      "cumulativeGasUsed": "0x1b09ef1",
      "logs": [
        {
          "address": "0xed08ee493161fb3ea1fb8935271ed6e85fdd8c0c",
          "topics": [
            "0x3df1ef423accc9fa5ddf0ee8cf9791e181626a48a8c8b20fc001e83580401960",
            "0x0000000000000000000000000000000000000000000000000000000000000009"
          ],
          "data": "0x000000000000000000000000000000000000000000000000000000000000006000000000000000000000000000000000000000000000000000000000000000a000000000000000000000000000000000000000000000000000000000000000e0000000000000000000000000000000000000000000000000000000000000000f546f6e67756520696e20436865656b0000000000000000000000000000000000000000000000000000000000000000000000000000000000000000000000000a52657374617572616e7400000000000000000000000000000000000000000000000000000000000000000000000000000000000000000000000000000000000e5361696e74205061756c2c204d4e000000000000000000000000000000000000",
          "blockHash": "0xd8bbfb67fbf6febbeeff598b8f87bf1a029e4066e5e8c59cf01142ce4f626591",
          "blockNumber": "0xa0c0ee",
          "blockTimestamp": "0x69c6f234",
          "transactionHash": "0x20c05d10be6436e265c6c0411766d58e16f8ca91ca3d9c7c837959e46126abcf",
          "transactionIndex": "0x6b",
          "logIndex": "0x1d6",
          "removed": false
        }
      ],
      "logsBloom": "0x00000000000000000000000000008000000080000000000000000000000000000000000000000000000000000000000000000000000000004000000000200000000000000000000000000000000000000000000000000000000000000000000000000000000000000000000000000000000000000000000000000000000000000000000000000000000000000000000002001000000000000000000000000000000000000000000000000000000000000000000000000000000000000000000000000000000000000000000000001000080000000000000000000000000000000000000000000000000000000000000000000000000000000000000000800000",
      "type": "0x2",
      "transactionHash": "0x20c05d10be6436e265c6c0411766d58e16f8ca91ca3d9c7c837959e46126abcf",
      "transactionIndex": "0x6b",
      "blockHash": "0xd8bbfb67fbf6febbeeff598b8f87bf1a029e4066e5e8c59cf01142ce4f626591",
      "blockNumber": "0xa0c0ee",
      "gasUsed": "0x24549",
      "effectiveGasPrice": "0xf425c",
      "from": "0x4ff9193756e090795742756e043edebf50eeaa47",
      "to": "0xed08ee493161fb3ea1fb8935271ed6e85fdd8c0c",
      "contractAddress": null
    }
  ],
  "libraries": [],
  "pending": [],
  "returns": {},
  "timestamp": 1774645888656,
  "chain": 11155111,
  "commit": "b067f97"
}